{
	"contracts/FundMe.sol": {
		"FundMe": {
			"abi": [
				{
					"inputs": [],
					"name": "fund",
					"outputs": [],
					"stateMutability": "payable",
					"type": "function"
				},
				{
					"inputs": [
						{
							"internalType": "uint256",
							"name": "ethAmount",
							"type": "uint256"
						}
					],
					"name": "getConversionRate",
					"outputs": [
						{
							"internalType": "uint256",
							"name": "",
							"type": "uint256"
						}
					],
					"stateMutability": "view",
					"type": "function"
				},
				{
					"inputs": [],
					"name": "getPrice",
					"outputs": [
						{
							"internalType": "uint256",
							"name": "",
							"type": "uint256"
						}
					],
					"stateMutability": "view",
					"type": "function"
				}
			],
			"devdoc": {
				"kind": "dev",
				"methods": {},
				"version": 1
			},
			"evm": {
				"assembly": "    /* \"contracts/FundMe.sol\":180:811  contract FundMe{... */\n  mstore(0x40, 0x80)\n    /* \"contracts/FundMe.sol\":220:229  50 * 1e18 */\n  0x02b5e3af16b1880000\n    /* \"contracts/FundMe.sol\":199:229  uint256 minimumUSD = 50 * 1e18 */\n  0x00\n  sstore\n    /* \"contracts/FundMe.sol\":180:811  contract FundMe{... */\n  callvalue\n  dup1\n  iszero\n  tag_1\n  jumpi\n  0x00\n  dup1\n  revert\ntag_1:\n  pop\n  dataSize(sub_0)\n  dup1\n  dataOffset(sub_0)\n  0x00\n  codecopy\n  0x00\n  return\nstop\n\nsub_0: assembly {\n        /* \"contracts/FundMe.sol\":180:811  contract FundMe{... */\n      mstore(0x40, 0x80)\n      jumpi(tag_1, lt(calldatasize, 0x04))\n      shr(0xe0, calldataload(0x00))\n      dup1\n      0x6e5b6b28\n      eq\n      tag_2\n      jumpi\n      dup1\n      0x98d5fdca\n      eq\n      tag_3\n      jumpi\n      dup1\n      0xb60d4288\n      eq\n      tag_4\n      jumpi\n    tag_1:\n      0x00\n      dup1\n      revert\n        /* \"contracts/FundMe.sol\":598:809  function getConversionRate(uint256 ethAmount) public view returns (uint256){... */\n    tag_2:\n      callvalue\n      dup1\n      iszero\n      tag_5\n      jumpi\n      0x00\n      dup1\n      revert\n    tag_5:\n      pop\n      tag_6\n      0x04\n      dup1\n      calldatasize\n      sub\n      dup2\n      add\n      swap1\n      tag_7\n      swap2\n      swap1\n      tag_8\n      jump\t// in\n    tag_7:\n      tag_9\n      jump\t// in\n    tag_6:\n      mload(0x40)\n      tag_10\n      swap2\n      swap1\n      tag_11\n      jump\t// in\n    tag_10:\n      mload(0x40)\n      dup1\n      swap2\n      sub\n      swap1\n      return\n        /* \"contracts/FundMe.sol\":347:592  function getPrice() public view returns(uint256) {... */\n    tag_3:\n      callvalue\n      dup1\n      iszero\n      tag_12\n      jumpi\n      0x00\n      dup1\n      revert\n    tag_12:\n      pop\n      tag_13\n      tag_14\n      jump\t// in\n    tag_13:\n      mload(0x40)\n      tag_15\n      swap2\n      swap1\n      tag_11\n      jump\t// in\n    tag_15:\n      mload(0x40)\n      dup1\n      swap2\n      sub\n      swap1\n      return\n        /* \"contracts/FundMe.sol\":234:343  function fund() public payable {... */\n    tag_4:\n      tag_16\n      tag_17\n      jump\t// in\n    tag_16:\n      stop\n        /* \"contracts/FundMe.sol\":598:809  function getConversionRate(uint256 ethAmount) public view returns (uint256){... */\n    tag_9:\n        /* \"contracts/FundMe.sol\":665:672  uint256 */\n      0x00\n        /* \"contracts/FundMe.sol\":679:695  uint256 ethPrice */\n      dup1\n        /* \"contracts/FundMe.sol\":698:708  getPrice() */\n      tag_19\n        /* \"contracts/FundMe.sol\":698:706  getPrice */\n      tag_14\n        /* \"contracts/FundMe.sol\":698:708  getPrice() */\n      jump\t// in\n    tag_19:\n        /* \"contracts/FundMe.sol\":679:708  uint256 ethPrice = getPrice() */\n      swap1\n      pop\n        /* \"contracts/FundMe.sol\":714:736  uint256 ethAmountinUSD */\n      0x00\n        /* \"contracts/FundMe.sol\":763:767  1e18 */\n      0x0de0b6b3a7640000\n        /* \"contracts/FundMe.sol\":752:761  ethAmount */\n      dup5\n        /* \"contracts/FundMe.sol\":741:749  ethPrice */\n      dup4\n        /* \"contracts/FundMe.sol\":741:761  ethPrice * ethAmount */\n      tag_20\n      swap2\n      swap1\n      tag_21\n      jump\t// in\n    tag_20:\n        /* \"contracts/FundMe.sol\":740:767  (ethPrice * ethAmount)/1e18 */\n      tag_22\n      swap2\n      swap1\n      tag_23\n      jump\t// in\n    tag_22:\n        /* \"contracts/FundMe.sol\":714:768  uint256 ethAmountinUSD = ((ethPrice * ethAmount)/1e18) */\n      swap1\n      pop\n        /* \"contracts/FundMe.sol\":789:803  ethAmountinUSD */\n      dup1\n        /* \"contracts/FundMe.sol\":774:804  return uint256(ethAmountinUSD) */\n      swap3\n      pop\n      pop\n      pop\n        /* \"contracts/FundMe.sol\":598:809  function getConversionRate(uint256 ethAmount) public view returns (uint256){... */\n      swap2\n      swap1\n      pop\n      jump\t// out\n        /* \"contracts/FundMe.sol\":347:592  function getPrice() public view returns(uint256) {... */\n    tag_14:\n        /* \"contracts/FundMe.sol\":387:394  uint256 */\n      0x00\n        /* \"contracts/FundMe.sol\":402:433  AggregatorV3Interface pricefeed */\n      dup1\n        /* \"contracts/FundMe.sol\":458:500  0x694AA1769357215DE4FAC081bf1f309aDC325306 */\n      0x694aa1769357215de4fac081bf1f309adc325306\n        /* \"contracts/FundMe.sol\":402:501  AggregatorV3Interface pricefeed = AggregatorV3Interface(0x694AA1769357215DE4FAC081bf1f309aDC325306) */\n      swap1\n      pop\n        /* \"contracts/FundMe.sol\":509:521  int256 price */\n      0x00\n        /* \"contracts/FundMe.sol\":528:537  pricefeed */\n      dup2\n        /* \"contracts/FundMe.sol\":528:553  pricefeed.latestRoundData */\n      0xffffffffffffffffffffffffffffffffffffffff\n      and\n      0xfeaf968c\n        /* \"contracts/FundMe.sol\":528:555  pricefeed.latestRoundData() */\n      mload(0x40)\n      dup2\n      0xffffffff\n      and\n      0xe0\n      shl\n      dup2\n      mstore\n      0x04\n      add\n      0xa0\n      mload(0x40)\n      dup1\n      dup4\n      sub\n      dup2\n      dup7\n      gas\n      staticcall\n      iszero\n      dup1\n      iszero\n      tag_26\n      jumpi\n      returndatasize\n      0x00\n      dup1\n      returndatacopy\n      revert(0x00, returndatasize)\n    tag_26:\n      pop\n      pop\n      pop\n      pop\n      mload(0x40)\n      returndatasize\n      not(0x1f)\n      0x1f\n      dup3\n      add\n      and\n      dup3\n      add\n      dup1\n      0x40\n      mstore\n      pop\n      dup2\n      add\n      swap1\n      tag_27\n      swap2\n      swap1\n      tag_28\n      jump\t// in\n    tag_27:\n        /* \"contracts/FundMe.sol\":507:555  (,int256 price,,,) = pricefeed.latestRoundData() */\n      pop\n      pop\n      pop\n      swap2\n      pop\n      pop\n        /* \"contracts/FundMe.sol\":582:586  1e18 */\n      0x0de0b6b3a7640000\n        /* \"contracts/FundMe.sol\":576:581  price */\n      dup2\n        /* \"contracts/FundMe.sol\":576:586  price*1e18 */\n      tag_29\n      swap2\n      swap1\n      tag_30\n      jump\t// in\n    tag_29:\n        /* \"contracts/FundMe.sol\":561:587  return uint256(price*1e18) */\n      swap3\n      pop\n      pop\n      pop\n        /* \"contracts/FundMe.sol\":347:592  function getPrice() public view returns(uint256) {... */\n      swap1\n      jump\t// out\n        /* \"contracts/FundMe.sol\":234:343  function fund() public payable {... */\n    tag_17:\n        /* \"contracts/FundMe.sol\":311:315  1e18 */\n      0x0de0b6b3a7640000\n        /* \"contracts/FundMe.sol\":280:308  getConversionRate(msg.value) */\n      tag_32\n        /* \"contracts/FundMe.sol\":298:307  msg.value */\n      callvalue\n        /* \"contracts/FundMe.sol\":280:297  getConversionRate */\n      tag_9\n        /* \"contracts/FundMe.sol\":280:308  getConversionRate(msg.value) */\n      jump\t// in\n    tag_32:\n        /* \"contracts/FundMe.sol\":280:315  getConversionRate(msg.value) > 1e18 */\n      gt\n        /* \"contracts/FundMe.sol\":271:338  require (getConversionRate(msg.value) > 1e18, \"Didn't send enough\") */\n      tag_33\n      jumpi\n      mload(0x40)\n      0x08c379a000000000000000000000000000000000000000000000000000000000\n      dup2\n      mstore\n      0x04\n      add\n      tag_34\n      swap1\n      tag_35\n      jump\t// in\n    tag_34:\n      mload(0x40)\n      dup1\n      swap2\n      sub\n      swap1\n      revert\n    tag_33:\n        /* \"contracts/FundMe.sol\":234:343  function fund() public payable {... */\n      jump\t// out\n        /* \"#utility.yul\":88:205   */\n    tag_37:\n        /* \"#utility.yul\":197:198   */\n      0x00\n        /* \"#utility.yul\":194:195   */\n      dup1\n        /* \"#utility.yul\":187:199   */\n      revert\n        /* \"#utility.yul\":334:411   */\n    tag_39:\n        /* \"#utility.yul\":371:378   */\n      0x00\n        /* \"#utility.yul\":400:405   */\n      dup2\n        /* \"#utility.yul\":389:405   */\n      swap1\n      pop\n        /* \"#utility.yul\":334:411   */\n      swap2\n      swap1\n      pop\n      jump\t// out\n        /* \"#utility.yul\":417:539   */\n    tag_40:\n        /* \"#utility.yul\":490:514   */\n      tag_61\n        /* \"#utility.yul\":508:513   */\n      dup2\n        /* \"#utility.yul\":490:514   */\n      tag_39\n      jump\t// in\n    tag_61:\n        /* \"#utility.yul\":483:488   */\n      dup2\n        /* \"#utility.yul\":480:515   */\n      eq\n        /* \"#utility.yul\":470:533   */\n      tag_62\n      jumpi\n        /* \"#utility.yul\":529:530   */\n      0x00\n        /* \"#utility.yul\":526:527   */\n      dup1\n        /* \"#utility.yul\":519:531   */\n      revert\n        /* \"#utility.yul\":470:533   */\n    tag_62:\n        /* \"#utility.yul\":417:539   */\n      pop\n      jump\t// out\n        /* \"#utility.yul\":545:684   */\n    tag_41:\n        /* \"#utility.yul\":591:596   */\n      0x00\n        /* \"#utility.yul\":629:635   */\n      dup2\n        /* \"#utility.yul\":616:636   */\n      calldataload\n        /* \"#utility.yul\":607:636   */\n      swap1\n      pop\n        /* \"#utility.yul\":645:678   */\n      tag_64\n        /* \"#utility.yul\":672:677   */\n      dup2\n        /* \"#utility.yul\":645:678   */\n      tag_40\n      jump\t// in\n    tag_64:\n        /* \"#utility.yul\":545:684   */\n      swap3\n      swap2\n      pop\n      pop\n      jump\t// out\n        /* \"#utility.yul\":690:1019   */\n    tag_8:\n        /* \"#utility.yul\":749:755   */\n      0x00\n        /* \"#utility.yul\":798:800   */\n      0x20\n        /* \"#utility.yul\":786:795   */\n      dup3\n        /* \"#utility.yul\":777:784   */\n      dup5\n        /* \"#utility.yul\":773:796   */\n      sub\n        /* \"#utility.yul\":769:801   */\n      slt\n        /* \"#utility.yul\":766:885   */\n      iszero\n      tag_66\n      jumpi\n        /* \"#utility.yul\":804:883   */\n      tag_67\n      tag_37\n      jump\t// in\n    tag_67:\n        /* \"#utility.yul\":766:885   */\n    tag_66:\n        /* \"#utility.yul\":924:925   */\n      0x00\n        /* \"#utility.yul\":949:1002   */\n      tag_68\n        /* \"#utility.yul\":994:1001   */\n      dup5\n        /* \"#utility.yul\":985:991   */\n      dup3\n        /* \"#utility.yul\":974:983   */\n      dup6\n        /* \"#utility.yul\":970:992   */\n      add\n        /* \"#utility.yul\":949:1002   */\n      tag_41\n      jump\t// in\n    tag_68:\n        /* \"#utility.yul\":939:1002   */\n      swap2\n      pop\n        /* \"#utility.yul\":895:1012   */\n      pop\n        /* \"#utility.yul\":690:1019   */\n      swap3\n      swap2\n      pop\n      pop\n      jump\t// out\n        /* \"#utility.yul\":1025:1143   */\n    tag_42:\n        /* \"#utility.yul\":1112:1136   */\n      tag_70\n        /* \"#utility.yul\":1130:1135   */\n      dup2\n        /* \"#utility.yul\":1112:1136   */\n      tag_39\n      jump\t// in\n    tag_70:\n        /* \"#utility.yul\":1107:1110   */\n      dup3\n        /* \"#utility.yul\":1100:1137   */\n      mstore\n        /* \"#utility.yul\":1025:1143   */\n      pop\n      pop\n      jump\t// out\n        /* \"#utility.yul\":1149:1371   */\n    tag_11:\n        /* \"#utility.yul\":1242:1246   */\n      0x00\n        /* \"#utility.yul\":1280:1282   */\n      0x20\n        /* \"#utility.yul\":1269:1278   */\n      dup3\n        /* \"#utility.yul\":1265:1283   */\n      add\n        /* \"#utility.yul\":1257:1283   */\n      swap1\n      pop\n        /* \"#utility.yul\":1293:1364   */\n      tag_72\n        /* \"#utility.yul\":1361:1362   */\n      0x00\n        /* \"#utility.yul\":1350:1359   */\n      dup4\n        /* \"#utility.yul\":1346:1363   */\n      add\n        /* \"#utility.yul\":1337:1343   */\n      dup5\n        /* \"#utility.yul\":1293:1364   */\n      tag_42\n      jump\t// in\n    tag_72:\n        /* \"#utility.yul\":1149:1371   */\n      swap3\n      swap2\n      pop\n      pop\n      jump\t// out\n        /* \"#utility.yul\":1377:1557   */\n    tag_43:\n        /* \"#utility.yul\":1425:1502   */\n      0x4e487b7100000000000000000000000000000000000000000000000000000000\n        /* \"#utility.yul\":1422:1423   */\n      0x00\n        /* \"#utility.yul\":1415:1503   */\n      mstore\n        /* \"#utility.yul\":1522:1526   */\n      0x11\n        /* \"#utility.yul\":1519:1520   */\n      0x04\n        /* \"#utility.yul\":1512:1527   */\n      mstore\n        /* \"#utility.yul\":1546:1550   */\n      0x24\n        /* \"#utility.yul\":1543:1544   */\n      0x00\n        /* \"#utility.yul\":1536:1551   */\n      revert\n        /* \"#utility.yul\":1563:1973   */\n    tag_21:\n        /* \"#utility.yul\":1603:1610   */\n      0x00\n        /* \"#utility.yul\":1626:1646   */\n      tag_75\n        /* \"#utility.yul\":1644:1645   */\n      dup3\n        /* \"#utility.yul\":1626:1646   */\n      tag_39\n      jump\t// in\n    tag_75:\n        /* \"#utility.yul\":1621:1646   */\n      swap2\n      pop\n        /* \"#utility.yul\":1660:1680   */\n      tag_76\n        /* \"#utility.yul\":1678:1679   */\n      dup4\n        /* \"#utility.yul\":1660:1680   */\n      tag_39\n      jump\t// in\n    tag_76:\n        /* \"#utility.yul\":1655:1680   */\n      swap3\n      pop\n        /* \"#utility.yul\":1715:1716   */\n      dup3\n        /* \"#utility.yul\":1712:1713   */\n      dup3\n        /* \"#utility.yul\":1708:1717   */\n      mul\n        /* \"#utility.yul\":1737:1767   */\n      tag_77\n        /* \"#utility.yul\":1755:1766   */\n      dup2\n        /* \"#utility.yul\":1737:1767   */\n      tag_39\n      jump\t// in\n    tag_77:\n        /* \"#utility.yul\":1726:1767   */\n      swap2\n      pop\n        /* \"#utility.yul\":1916:1917   */\n      dup3\n        /* \"#utility.yul\":1907:1914   */\n      dup3\n        /* \"#utility.yul\":1903:1918   */\n      div\n        /* \"#utility.yul\":1900:1901   */\n      dup5\n        /* \"#utility.yul\":1897:1919   */\n      eq\n        /* \"#utility.yul\":1877:1878   */\n      dup4\n        /* \"#utility.yul\":1870:1879   */\n      iszero\n        /* \"#utility.yul\":1850:1933   */\n      or\n        /* \"#utility.yul\":1827:1966   */\n      tag_78\n      jumpi\n        /* \"#utility.yul\":1946:1964   */\n      tag_79\n      tag_43\n      jump\t// in\n    tag_79:\n        /* \"#utility.yul\":1827:1966   */\n    tag_78:\n        /* \"#utility.yul\":1611:1973   */\n      pop\n        /* \"#utility.yul\":1563:1973   */\n      swap3\n      swap2\n      pop\n      pop\n      jump\t// out\n        /* \"#utility.yul\":1979:2159   */\n    tag_44:\n        /* \"#utility.yul\":2027:2104   */\n      0x4e487b7100000000000000000000000000000000000000000000000000000000\n        /* \"#utility.yul\":2024:2025   */\n      0x00\n        /* \"#utility.yul\":2017:2105   */\n      mstore\n        /* \"#utility.yul\":2124:2128   */\n      0x12\n        /* \"#utility.yul\":2121:2122   */\n      0x04\n        /* \"#utility.yul\":2114:2129   */\n      mstore\n        /* \"#utility.yul\":2148:2152   */\n      0x24\n        /* \"#utility.yul\":2145:2146   */\n      0x00\n        /* \"#utility.yul\":2138:2153   */\n      revert\n        /* \"#utility.yul\":2165:2350   */\n    tag_23:\n        /* \"#utility.yul\":2205:2206   */\n      0x00\n        /* \"#utility.yul\":2222:2242   */\n      tag_82\n        /* \"#utility.yul\":2240:2241   */\n      dup3\n        /* \"#utility.yul\":2222:2242   */\n      tag_39\n      jump\t// in\n    tag_82:\n        /* \"#utility.yul\":2217:2242   */\n      swap2\n      pop\n        /* \"#utility.yul\":2256:2276   */\n      tag_83\n        /* \"#utility.yul\":2274:2275   */\n      dup4\n        /* \"#utility.yul\":2256:2276   */\n      tag_39\n      jump\t// in\n    tag_83:\n        /* \"#utility.yul\":2251:2276   */\n      swap3\n      pop\n        /* \"#utility.yul\":2295:2296   */\n      dup3\n        /* \"#utility.yul\":2285:2320   */\n      tag_84\n      jumpi\n        /* \"#utility.yul\":2300:2318   */\n      tag_85\n      tag_44\n      jump\t// in\n    tag_85:\n        /* \"#utility.yul\":2285:2320   */\n    tag_84:\n        /* \"#utility.yul\":2342:2343   */\n      dup3\n        /* \"#utility.yul\":2339:2340   */\n      dup3\n        /* \"#utility.yul\":2335:2344   */\n      div\n        /* \"#utility.yul\":2330:2344   */\n      swap1\n      pop\n        /* \"#utility.yul\":2165:2350   */\n      swap3\n      swap2\n      pop\n      pop\n      jump\t// out\n        /* \"#utility.yul\":2356:2461   */\n    tag_45:\n        /* \"#utility.yul\":2392:2399   */\n      0x00\n        /* \"#utility.yul\":2432:2454   */\n      0xffffffffffffffffffff\n        /* \"#utility.yul\":2425:2430   */\n      dup3\n        /* \"#utility.yul\":2421:2455   */\n      and\n        /* \"#utility.yul\":2410:2455   */\n      swap1\n      pop\n        /* \"#utility.yul\":2356:2461   */\n      swap2\n      swap1\n      pop\n      jump\t// out\n        /* \"#utility.yul\":2467:2587   */\n    tag_46:\n        /* \"#utility.yul\":2539:2562   */\n      tag_88\n        /* \"#utility.yul\":2556:2561   */\n      dup2\n        /* \"#utility.yul\":2539:2562   */\n      tag_45\n      jump\t// in\n    tag_88:\n        /* \"#utility.yul\":2532:2537   */\n      dup2\n        /* \"#utility.yul\":2529:2563   */\n      eq\n        /* \"#utility.yul\":2519:2581   */\n      tag_89\n      jumpi\n        /* \"#utility.yul\":2577:2578   */\n      0x00\n        /* \"#utility.yul\":2574:2575   */\n      dup1\n        /* \"#utility.yul\":2567:2579   */\n      revert\n        /* \"#utility.yul\":2519:2581   */\n    tag_89:\n        /* \"#utility.yul\":2467:2587   */\n      pop\n      jump\t// out\n        /* \"#utility.yul\":2593:2734   */\n    tag_47:\n        /* \"#utility.yul\":2649:2654   */\n      0x00\n        /* \"#utility.yul\":2680:2686   */\n      dup2\n        /* \"#utility.yul\":2674:2687   */\n      mload\n        /* \"#utility.yul\":2665:2687   */\n      swap1\n      pop\n        /* \"#utility.yul\":2696:2728   */\n      tag_91\n        /* \"#utility.yul\":2722:2727   */\n      dup2\n        /* \"#utility.yul\":2696:2728   */\n      tag_46\n      jump\t// in\n    tag_91:\n        /* \"#utility.yul\":2593:2734   */\n      swap3\n      swap2\n      pop\n      pop\n      jump\t// out\n        /* \"#utility.yul\":2740:2816   */\n    tag_48:\n        /* \"#utility.yul\":2776:2783   */\n      0x00\n        /* \"#utility.yul\":2805:2810   */\n      dup2\n        /* \"#utility.yul\":2794:2810   */\n      swap1\n      pop\n        /* \"#utility.yul\":2740:2816   */\n      swap2\n      swap1\n      pop\n      jump\t// out\n        /* \"#utility.yul\":2822:2942   */\n    tag_49:\n        /* \"#utility.yul\":2894:2917   */\n      tag_94\n        /* \"#utility.yul\":2911:2916   */\n      dup2\n        /* \"#utility.yul\":2894:2917   */\n      tag_48\n      jump\t// in\n    tag_94:\n        /* \"#utility.yul\":2887:2892   */\n      dup2\n        /* \"#utility.yul\":2884:2918   */\n      eq\n        /* \"#utility.yul\":2874:2936   */\n      tag_95\n      jumpi\n        /* \"#utility.yul\":2932:2933   */\n      0x00\n        /* \"#utility.yul\":2929:2930   */\n      dup1\n        /* \"#utility.yul\":2922:2934   */\n      revert\n        /* \"#utility.yul\":2874:2936   */\n    tag_95:\n        /* \"#utility.yul\":2822:2942   */\n      pop\n      jump\t// out\n        /* \"#utility.yul\":2948:3089   */\n    tag_50:\n        /* \"#utility.yul\":3004:3009   */\n      0x00\n        /* \"#utility.yul\":3035:3041   */\n      dup2\n        /* \"#utility.yul\":3029:3042   */\n      mload\n        /* \"#utility.yul\":3020:3042   */\n      swap1\n      pop\n        /* \"#utility.yul\":3051:3083   */\n      tag_97\n        /* \"#utility.yul\":3077:3082   */\n      dup2\n        /* \"#utility.yul\":3051:3083   */\n      tag_49\n      jump\t// in\n    tag_97:\n        /* \"#utility.yul\":2948:3089   */\n      swap3\n      swap2\n      pop\n      pop\n      jump\t// out\n        /* \"#utility.yul\":3095:3238   */\n    tag_51:\n        /* \"#utility.yul\":3152:3157   */\n      0x00\n        /* \"#utility.yul\":3183:3189   */\n      dup2\n        /* \"#utility.yul\":3177:3190   */\n      mload\n        /* \"#utility.yul\":3168:3190   */\n      swap1\n      pop\n        /* \"#utility.yul\":3199:3232   */\n      tag_99\n        /* \"#utility.yul\":3226:3231   */\n      dup2\n        /* \"#utility.yul\":3199:3232   */\n      tag_40\n      jump\t// in\n    tag_99:\n        /* \"#utility.yul\":3095:3238   */\n      swap3\n      swap2\n      pop\n      pop\n      jump\t// out\n        /* \"#utility.yul\":3244:4215   */\n    tag_28:\n        /* \"#utility.yul\":3347:3353   */\n      0x00\n        /* \"#utility.yul\":3355:3361   */\n      dup1\n        /* \"#utility.yul\":3363:3369   */\n      0x00\n        /* \"#utility.yul\":3371:3377   */\n      dup1\n        /* \"#utility.yul\":3379:3385   */\n      0x00\n        /* \"#utility.yul\":3428:3431   */\n      0xa0\n        /* \"#utility.yul\":3416:3425   */\n      dup7\n        /* \"#utility.yul\":3407:3414   */\n      dup9\n        /* \"#utility.yul\":3403:3426   */\n      sub\n        /* \"#utility.yul\":3399:3432   */\n      slt\n        /* \"#utility.yul\":3396:3516   */\n      iszero\n      tag_101\n      jumpi\n        /* \"#utility.yul\":3435:3514   */\n      tag_102\n      tag_37\n      jump\t// in\n    tag_102:\n        /* \"#utility.yul\":3396:3516   */\n    tag_101:\n        /* \"#utility.yul\":3555:3556   */\n      0x00\n        /* \"#utility.yul\":3580:3643   */\n      tag_103\n        /* \"#utility.yul\":3635:3642   */\n      dup9\n        /* \"#utility.yul\":3626:3632   */\n      dup3\n        /* \"#utility.yul\":3615:3624   */\n      dup10\n        /* \"#utility.yul\":3611:3633   */\n      add\n        /* \"#utility.yul\":3580:3643   */\n      tag_47\n      jump\t// in\n    tag_103:\n        /* \"#utility.yul\":3570:3643   */\n      swap6\n      pop\n        /* \"#utility.yul\":3526:3653   */\n      pop\n        /* \"#utility.yul\":3692:3694   */\n      0x20\n        /* \"#utility.yul\":3718:3781   */\n      tag_104\n        /* \"#utility.yul\":3773:3780   */\n      dup9\n        /* \"#utility.yul\":3764:3770   */\n      dup3\n        /* \"#utility.yul\":3753:3762   */\n      dup10\n        /* \"#utility.yul\":3749:3771   */\n      add\n        /* \"#utility.yul\":3718:3781   */\n      tag_50\n      jump\t// in\n    tag_104:\n        /* \"#utility.yul\":3708:3781   */\n      swap5\n      pop\n        /* \"#utility.yul\":3663:3791   */\n      pop\n        /* \"#utility.yul\":3830:3832   */\n      0x40\n        /* \"#utility.yul\":3856:3920   */\n      tag_105\n        /* \"#utility.yul\":3912:3919   */\n      dup9\n        /* \"#utility.yul\":3903:3909   */\n      dup3\n        /* \"#utility.yul\":3892:3901   */\n      dup10\n        /* \"#utility.yul\":3888:3910   */\n      add\n        /* \"#utility.yul\":3856:3920   */\n      tag_51\n      jump\t// in\n    tag_105:\n        /* \"#utility.yul\":3846:3920   */\n      swap4\n      pop\n        /* \"#utility.yul\":3801:3930   */\n      pop\n        /* \"#utility.yul\":3969:3971   */\n      0x60\n        /* \"#utility.yul\":3995:4059   */\n      tag_106\n        /* \"#utility.yul\":4051:4058   */\n      dup9\n        /* \"#utility.yul\":4042:4048   */\n      dup3\n        /* \"#utility.yul\":4031:4040   */\n      dup10\n        /* \"#utility.yul\":4027:4049   */\n      add\n        /* \"#utility.yul\":3995:4059   */\n      tag_51\n      jump\t// in\n    tag_106:\n        /* \"#utility.yul\":3985:4059   */\n      swap3\n      pop\n        /* \"#utility.yul\":3940:4069   */\n      pop\n        /* \"#utility.yul\":4108:4111   */\n      0x80\n        /* \"#utility.yul\":4135:4198   */\n      tag_107\n        /* \"#utility.yul\":4190:4197   */\n      dup9\n        /* \"#utility.yul\":4181:4187   */\n      dup3\n        /* \"#utility.yul\":4170:4179   */\n      dup10\n        /* \"#utility.yul\":4166:4188   */\n      add\n        /* \"#utility.yul\":4135:4198   */\n      tag_47\n      jump\t// in\n    tag_107:\n        /* \"#utility.yul\":4125:4198   */\n      swap2\n      pop\n        /* \"#utility.yul\":4079:4208   */\n      pop\n        /* \"#utility.yul\":3244:4215   */\n      swap3\n      swap6\n      pop\n      swap3\n      swap6\n      swap1\n      swap4\n      pop\n      jump\t// out\n        /* \"#utility.yul\":4221:4777   */\n    tag_30:\n        /* \"#utility.yul\":4260:4267   */\n      0x00\n        /* \"#utility.yul\":4283:4302   */\n      tag_109\n        /* \"#utility.yul\":4300:4301   */\n      dup3\n        /* \"#utility.yul\":4283:4302   */\n      tag_48\n      jump\t// in\n    tag_109:\n        /* \"#utility.yul\":4278:4302   */\n      swap2\n      pop\n        /* \"#utility.yul\":4316:4335   */\n      tag_110\n        /* \"#utility.yul\":4333:4334   */\n      dup4\n        /* \"#utility.yul\":4316:4335   */\n      tag_48\n      jump\t// in\n    tag_110:\n        /* \"#utility.yul\":4311:4335   */\n      swap3\n      pop\n        /* \"#utility.yul\":4370:4371   */\n      dup3\n        /* \"#utility.yul\":4367:4368   */\n      dup3\n        /* \"#utility.yul\":4363:4372   */\n      mul\n        /* \"#utility.yul\":4392:4421   */\n      tag_111\n        /* \"#utility.yul\":4409:4420   */\n      dup2\n        /* \"#utility.yul\":4392:4421   */\n      tag_48\n      jump\t// in\n    tag_111:\n        /* \"#utility.yul\":4381:4421   */\n      swap2\n      pop\n        /* \"#utility.yul\":4479:4545   */\n      0x8000000000000000000000000000000000000000000000000000000000000000\n        /* \"#utility.yul\":4476:4477   */\n      dup5\n        /* \"#utility.yul\":4473:4546   */\n      eq\n        /* \"#utility.yul\":4469:4470   */\n      0x00\n        /* \"#utility.yul\":4466:4467   */\n      dup5\n        /* \"#utility.yul\":4462:4471   */\n      slt\n        /* \"#utility.yul\":4458:4547   */\n      and\n        /* \"#utility.yul\":4455:4570   */\n      iszero\n      tag_112\n      jumpi\n        /* \"#utility.yul\":4550:4568   */\n      tag_113\n      tag_43\n      jump\t// in\n    tag_113:\n        /* \"#utility.yul\":4455:4570   */\n    tag_112:\n        /* \"#utility.yul\":4720:4721   */\n      dup3\n        /* \"#utility.yul\":4711:4718   */\n      dup3\n        /* \"#utility.yul\":4706:4722   */\n      sdiv\n        /* \"#utility.yul\":4703:4704   */\n      dup5\n        /* \"#utility.yul\":4700:4723   */\n      eq\n        /* \"#utility.yul\":4680:4681   */\n      dup4\n        /* \"#utility.yul\":4673:4682   */\n      iszero\n        /* \"#utility.yul\":4653:4737   */\n      or\n        /* \"#utility.yul\":4630:4770   */\n      tag_114\n      jumpi\n        /* \"#utility.yul\":4750:4768   */\n      tag_115\n      tag_43\n      jump\t// in\n    tag_115:\n        /* \"#utility.yul\":4630:4770   */\n    tag_114:\n        /* \"#utility.yul\":4268:4777   */\n      pop\n        /* \"#utility.yul\":4221:4777   */\n      swap3\n      swap2\n      pop\n      pop\n      jump\t// out\n        /* \"#utility.yul\":4783:4952   */\n    tag_52:\n        /* \"#utility.yul\":4867:4878   */\n      0x00\n        /* \"#utility.yul\":4901:4907   */\n      dup3\n        /* \"#utility.yul\":4896:4899   */\n      dup3\n        /* \"#utility.yul\":4889:4908   */\n      mstore\n        /* \"#utility.yul\":4941:4945   */\n      0x20\n        /* \"#utility.yul\":4936:4939   */\n      dup3\n        /* \"#utility.yul\":4932:4946   */\n      add\n        /* \"#utility.yul\":4917:4946   */\n      swap1\n      pop\n        /* \"#utility.yul\":4783:4952   */\n      swap3\n      swap2\n      pop\n      pop\n      jump\t// out\n        /* \"#utility.yul\":4958:5126   */\n    tag_53:\n        /* \"#utility.yul\":5098:5118   */\n      0x4469646e27742073656e6420656e6f7567680000000000000000000000000000\n        /* \"#utility.yul\":5094:5095   */\n      0x00\n        /* \"#utility.yul\":5086:5092   */\n      dup3\n        /* \"#utility.yul\":5082:5096   */\n      add\n        /* \"#utility.yul\":5075:5119   */\n      mstore\n        /* \"#utility.yul\":4958:5126   */\n      pop\n      jump\t// out\n        /* \"#utility.yul\":5132:5498   */\n    tag_54:\n        /* \"#utility.yul\":5274:5277   */\n      0x00\n        /* \"#utility.yul\":5295:5362   */\n      tag_119\n        /* \"#utility.yul\":5359:5361   */\n      0x12\n        /* \"#utility.yul\":5354:5357   */\n      dup4\n        /* \"#utility.yul\":5295:5362   */\n      tag_52\n      jump\t// in\n    tag_119:\n        /* \"#utility.yul\":5288:5362   */\n      swap2\n      pop\n        /* \"#utility.yul\":5371:5464   */\n      tag_120\n        /* \"#utility.yul\":5460:5463   */\n      dup3\n        /* \"#utility.yul\":5371:5464   */\n      tag_53\n      jump\t// in\n    tag_120:\n        /* \"#utility.yul\":5489:5491   */\n      0x20\n        /* \"#utility.yul\":5484:5487   */\n      dup3\n        /* \"#utility.yul\":5480:5492   */\n      add\n        /* \"#utility.yul\":5473:5492   */\n      swap1\n      pop\n        /* \"#utility.yul\":5132:5498   */\n      swap2\n      swap1\n      pop\n      jump\t// out\n        /* \"#utility.yul\":5504:5923   */\n    tag_35:\n        /* \"#utility.yul\":5670:5674   */\n      0x00\n        /* \"#utility.yul\":5708:5710   */\n      0x20\n        /* \"#utility.yul\":5697:5706   */\n      dup3\n        /* \"#utility.yul\":5693:5711   */\n      add\n        /* \"#utility.yul\":5685:5711   */\n      swap1\n      pop\n        /* \"#utility.yul\":5757:5766   */\n      dup2\n        /* \"#utility.yul\":5751:5755   */\n      dup2\n        /* \"#utility.yul\":5747:5767   */\n      sub\n        /* \"#utility.yul\":5743:5744   */\n      0x00\n        /* \"#utility.yul\":5732:5741   */\n      dup4\n        /* \"#utility.yul\":5728:5745   */\n      add\n        /* \"#utility.yul\":5721:5768   */\n      mstore\n        /* \"#utility.yul\":5785:5916   */\n      tag_122\n        /* \"#utility.yul\":5911:5915   */\n      dup2\n        /* \"#utility.yul\":5785:5916   */\n      tag_54\n      jump\t// in\n    tag_122:\n        /* \"#utility.yul\":5777:5916   */\n      swap1\n      pop\n        /* \"#utility.yul\":5504:5923   */\n      swap2\n      swap1\n      pop\n      jump\t// out\n\n    auxdata: 0xa26469706673582212202de64f53e21641aed7161793a640d9bb33eb9296df83e40bfa17d0a746db4bd964736f6c63430008190033\n}\n",
				"bytecode": {
					"linkReferences": {},
					"object": "60806040526802b5e3af16b18800005f55348015601a575f80fd5b50610551806100285f395ff3fe608060405260043610610033575f3560e01c80636e5b6b281461003757806398d5fdca14610073578063b60d42881461009d575b5f80fd5b348015610042575f80fd5b5061005d60048036038101906100589190610212565b6100a7565b60405161006a919061024c565b60405180910390f35b34801561007e575f80fd5b506100876100df565b604051610094919061024c565b60405180910390f35b6100a5610187565b005b5f806100b16100df565b90505f670de0b6b3a764000084836100c99190610292565b6100d39190610300565b90508092505050919050565b5f8073694aa1769357215de4fac081bf1f309adc32530690505f8173ffffffffffffffffffffffffffffffffffffffff1663feaf968c6040518163ffffffff1660e01b815260040160a060405180830381865afa158015610142573d5f803e3d5ffd5b505050506040513d601f19601f8201168201806040525081019061016691906103b6565b505050915050670de0b6b3a764000081610180919061042d565b9250505090565b670de0b6b3a7640000610199346100a7565b116101d9576040517f08c379a00000000000000000000000000000000000000000000000000000000081526004016101d0906104fd565b60405180910390fd5b565b5f80fd5b5f819050919050565b6101f1816101df565b81146101fb575f80fd5b50565b5f8135905061020c816101e8565b92915050565b5f60208284031215610227576102266101db565b5b5f610234848285016101fe565b91505092915050565b610246816101df565b82525050565b5f60208201905061025f5f83018461023d565b92915050565b7f4e487b71000000000000000000000000000000000000000000000000000000005f52601160045260245ffd5b5f61029c826101df565b91506102a7836101df565b92508282026102b5816101df565b915082820484148315176102cc576102cb610265565b5b5092915050565b7f4e487b71000000000000000000000000000000000000000000000000000000005f52601260045260245ffd5b5f61030a826101df565b9150610315836101df565b925082610325576103246102d3565b5b828204905092915050565b5f69ffffffffffffffffffff82169050919050565b61034e81610330565b8114610358575f80fd5b50565b5f8151905061036981610345565b92915050565b5f819050919050565b6103818161036f565b811461038b575f80fd5b50565b5f8151905061039c81610378565b92915050565b5f815190506103b0816101e8565b92915050565b5f805f805f60a086880312156103cf576103ce6101db565b5b5f6103dc8882890161035b565b95505060206103ed8882890161038e565b94505060406103fe888289016103a2565b935050606061040f888289016103a2565b92505060806104208882890161035b565b9150509295509295909350565b5f6104378261036f565b91506104428361036f565b92508282026104508161036f565b91507f800000000000000000000000000000000000000000000000000000000000000084145f8412161561048757610486610265565b5b828205841483151761049c5761049b610265565b5b5092915050565b5f82825260208201905092915050565b7f4469646e27742073656e6420656e6f75676800000000000000000000000000005f82015250565b5f6104e76012836104a3565b91506104f2826104b3565b602082019050919050565b5f6020820190508181035f830152610514816104db565b905091905056fea26469706673582212202de64f53e21641aed7161793a640d9bb33eb9296df83e40bfa17d0a746db4bd964736f6c63430008190033",
					"opcodes": "PUSH1 0x80 PUSH1 0x40 MSTORE PUSH9 0x2B5E3AF16B1880000 PUSH0 SSTORE CALLVALUE DUP1 ISZERO PUSH1 0x1A JUMPI PUSH0 DUP1 REVERT JUMPDEST POP PUSH2 0x551 DUP1 PUSH2 0x28 PUSH0 CODECOPY PUSH0 RETURN INVALID PUSH1 0x80 PUSH1 0x40 MSTORE PUSH1 0x4 CALLDATASIZE LT PUSH2 0x33 JUMPI PUSH0 CALLDATALOAD PUSH1 0xE0 SHR DUP1 PUSH4 0x6E5B6B28 EQ PUSH2 0x37 JUMPI DUP1 PUSH4 0x98D5FDCA EQ PUSH2 0x73 JUMPI DUP1 PUSH4 0xB60D4288 EQ PUSH2 0x9D JUMPI JUMPDEST PUSH0 DUP1 REVERT JUMPDEST CALLVALUE DUP1 ISZERO PUSH2 0x42 JUMPI PUSH0 DUP1 REVERT JUMPDEST POP PUSH2 0x5D PUSH1 0x4 DUP1 CALLDATASIZE SUB DUP2 ADD SWAP1 PUSH2 0x58 SWAP2 SWAP1 PUSH2 0x212 JUMP JUMPDEST PUSH2 0xA7 JUMP JUMPDEST PUSH1 0x40 MLOAD PUSH2 0x6A SWAP2 SWAP1 PUSH2 0x24C JUMP JUMPDEST PUSH1 0x40 MLOAD DUP1 SWAP2 SUB SWAP1 RETURN JUMPDEST CALLVALUE DUP1 ISZERO PUSH2 0x7E JUMPI PUSH0 DUP1 REVERT JUMPDEST POP PUSH2 0x87 PUSH2 0xDF JUMP JUMPDEST PUSH1 0x40 MLOAD PUSH2 0x94 SWAP2 SWAP1 PUSH2 0x24C JUMP JUMPDEST PUSH1 0x40 MLOAD DUP1 SWAP2 SUB SWAP1 RETURN JUMPDEST PUSH2 0xA5 PUSH2 0x187 JUMP JUMPDEST STOP JUMPDEST PUSH0 DUP1 PUSH2 0xB1 PUSH2 0xDF JUMP JUMPDEST SWAP1 POP PUSH0 PUSH8 0xDE0B6B3A7640000 DUP5 DUP4 PUSH2 0xC9 SWAP2 SWAP1 PUSH2 0x292 JUMP JUMPDEST PUSH2 0xD3 SWAP2 SWAP1 PUSH2 0x300 JUMP JUMPDEST SWAP1 POP DUP1 SWAP3 POP POP POP SWAP2 SWAP1 POP JUMP JUMPDEST PUSH0 DUP1 PUSH20 0x694AA1769357215DE4FAC081BF1F309ADC325306 SWAP1 POP PUSH0 DUP2 PUSH20 0xFFFFFFFFFFFFFFFFFFFFFFFFFFFFFFFFFFFFFFFF AND PUSH4 0xFEAF968C PUSH1 0x40 MLOAD DUP2 PUSH4 0xFFFFFFFF AND PUSH1 0xE0 SHL DUP2 MSTORE PUSH1 0x4 ADD PUSH1 0xA0 PUSH1 0x40 MLOAD DUP1 DUP4 SUB DUP2 DUP7 GAS STATICCALL ISZERO DUP1 ISZERO PUSH2 0x142 JUMPI RETURNDATASIZE PUSH0 DUP1 RETURNDATACOPY RETURNDATASIZE PUSH0 REVERT JUMPDEST POP POP POP POP PUSH1 0x40 MLOAD RETURNDATASIZE PUSH1 0x1F NOT PUSH1 0x1F DUP3 ADD AND DUP3 ADD DUP1 PUSH1 0x40 MSTORE POP DUP2 ADD SWAP1 PUSH2 0x166 SWAP2 SWAP1 PUSH2 0x3B6 JUMP JUMPDEST POP POP POP SWAP2 POP POP PUSH8 0xDE0B6B3A7640000 DUP2 PUSH2 0x180 SWAP2 SWAP1 PUSH2 0x42D JUMP JUMPDEST SWAP3 POP POP POP SWAP1 JUMP JUMPDEST PUSH8 0xDE0B6B3A7640000 PUSH2 0x199 CALLVALUE PUSH2 0xA7 JUMP JUMPDEST GT PUSH2 0x1D9 JUMPI PUSH1 0x40 MLOAD PUSH32 0x8C379A000000000000000000000000000000000000000000000000000000000 DUP2 MSTORE PUSH1 0x4 ADD PUSH2 0x1D0 SWAP1 PUSH2 0x4FD JUMP JUMPDEST PUSH1 0x40 MLOAD DUP1 SWAP2 SUB SWAP1 REVERT JUMPDEST JUMP JUMPDEST PUSH0 DUP1 REVERT JUMPDEST PUSH0 DUP2 SWAP1 POP SWAP2 SWAP1 POP JUMP JUMPDEST PUSH2 0x1F1 DUP2 PUSH2 0x1DF JUMP JUMPDEST DUP2 EQ PUSH2 0x1FB JUMPI PUSH0 DUP1 REVERT JUMPDEST POP JUMP JUMPDEST PUSH0 DUP2 CALLDATALOAD SWAP1 POP PUSH2 0x20C DUP2 PUSH2 0x1E8 JUMP JUMPDEST SWAP3 SWAP2 POP POP JUMP JUMPDEST PUSH0 PUSH1 0x20 DUP3 DUP5 SUB SLT ISZERO PUSH2 0x227 JUMPI PUSH2 0x226 PUSH2 0x1DB JUMP JUMPDEST JUMPDEST PUSH0 PUSH2 0x234 DUP5 DUP3 DUP6 ADD PUSH2 0x1FE JUMP JUMPDEST SWAP2 POP POP SWAP3 SWAP2 POP POP JUMP JUMPDEST PUSH2 0x246 DUP2 PUSH2 0x1DF JUMP JUMPDEST DUP3 MSTORE POP POP JUMP JUMPDEST PUSH0 PUSH1 0x20 DUP3 ADD SWAP1 POP PUSH2 0x25F PUSH0 DUP4 ADD DUP5 PUSH2 0x23D JUMP JUMPDEST SWAP3 SWAP2 POP POP JUMP JUMPDEST PUSH32 0x4E487B7100000000000000000000000000000000000000000000000000000000 PUSH0 MSTORE PUSH1 0x11 PUSH1 0x4 MSTORE PUSH1 0x24 PUSH0 REVERT JUMPDEST PUSH0 PUSH2 0x29C DUP3 PUSH2 0x1DF JUMP JUMPDEST SWAP2 POP PUSH2 0x2A7 DUP4 PUSH2 0x1DF JUMP JUMPDEST SWAP3 POP DUP3 DUP3 MUL PUSH2 0x2B5 DUP2 PUSH2 0x1DF JUMP JUMPDEST SWAP2 POP DUP3 DUP3 DIV DUP5 EQ DUP4 ISZERO OR PUSH2 0x2CC JUMPI PUSH2 0x2CB PUSH2 0x265 JUMP JUMPDEST JUMPDEST POP SWAP3 SWAP2 POP POP JUMP JUMPDEST PUSH32 0x4E487B7100000000000000000000000000000000000000000000000000000000 PUSH0 MSTORE PUSH1 0x12 PUSH1 0x4 MSTORE PUSH1 0x24 PUSH0 REVERT JUMPDEST PUSH0 PUSH2 0x30A DUP3 PUSH2 0x1DF JUMP JUMPDEST SWAP2 POP PUSH2 0x315 DUP4 PUSH2 0x1DF JUMP JUMPDEST SWAP3 POP DUP3 PUSH2 0x325 JUMPI PUSH2 0x324 PUSH2 0x2D3 JUMP JUMPDEST JUMPDEST DUP3 DUP3 DIV SWAP1 POP SWAP3 SWAP2 POP POP JUMP JUMPDEST PUSH0 PUSH10 0xFFFFFFFFFFFFFFFFFFFF DUP3 AND SWAP1 POP SWAP2 SWAP1 POP JUMP JUMPDEST PUSH2 0x34E DUP2 PUSH2 0x330 JUMP JUMPDEST DUP2 EQ PUSH2 0x358 JUMPI PUSH0 DUP1 REVERT JUMPDEST POP JUMP JUMPDEST PUSH0 DUP2 MLOAD SWAP1 POP PUSH2 0x369 DUP2 PUSH2 0x345 JUMP JUMPDEST SWAP3 SWAP2 POP POP JUMP JUMPDEST PUSH0 DUP2 SWAP1 POP SWAP2 SWAP1 POP JUMP JUMPDEST PUSH2 0x381 DUP2 PUSH2 0x36F JUMP JUMPDEST DUP2 EQ PUSH2 0x38B JUMPI PUSH0 DUP1 REVERT JUMPDEST POP JUMP JUMPDEST PUSH0 DUP2 MLOAD SWAP1 POP PUSH2 0x39C DUP2 PUSH2 0x378 JUMP JUMPDEST SWAP3 SWAP2 POP POP JUMP JUMPDEST PUSH0 DUP2 MLOAD SWAP1 POP PUSH2 0x3B0 DUP2 PUSH2 0x1E8 JUMP JUMPDEST SWAP3 SWAP2 POP POP JUMP JUMPDEST PUSH0 DUP1 PUSH0 DUP1 PUSH0 PUSH1 0xA0 DUP7 DUP9 SUB SLT ISZERO PUSH2 0x3CF JUMPI PUSH2 0x3CE PUSH2 0x1DB JUMP JUMPDEST JUMPDEST PUSH0 PUSH2 0x3DC DUP9 DUP3 DUP10 ADD PUSH2 0x35B JUMP JUMPDEST SWAP6 POP POP PUSH1 0x20 PUSH2 0x3ED DUP9 DUP3 DUP10 ADD PUSH2 0x38E JUMP JUMPDEST SWAP5 POP POP PUSH1 0x40 PUSH2 0x3FE DUP9 DUP3 DUP10 ADD PUSH2 0x3A2 JUMP JUMPDEST SWAP4 POP POP PUSH1 0x60 PUSH2 0x40F DUP9 DUP3 DUP10 ADD PUSH2 0x3A2 JUMP JUMPDEST SWAP3 POP POP PUSH1 0x80 PUSH2 0x420 DUP9 DUP3 DUP10 ADD PUSH2 0x35B JUMP JUMPDEST SWAP2 POP POP SWAP3 SWAP6 POP SWAP3 SWAP6 SWAP1 SWAP4 POP JUMP JUMPDEST PUSH0 PUSH2 0x437 DUP3 PUSH2 0x36F JUMP JUMPDEST SWAP2 POP PUSH2 0x442 DUP4 PUSH2 0x36F JUMP JUMPDEST SWAP3 POP DUP3 DUP3 MUL PUSH2 0x450 DUP2 PUSH2 0x36F JUMP JUMPDEST SWAP2 POP PUSH32 0x8000000000000000000000000000000000000000000000000000000000000000 DUP5 EQ PUSH0 DUP5 SLT AND ISZERO PUSH2 0x487 JUMPI PUSH2 0x486 PUSH2 0x265 JUMP JUMPDEST JUMPDEST DUP3 DUP3 SDIV DUP5 EQ DUP4 ISZERO OR PUSH2 0x49C JUMPI PUSH2 0x49B PUSH2 0x265 JUMP JUMPDEST JUMPDEST POP SWAP3 SWAP2 POP POP JUMP JUMPDEST PUSH0 DUP3 DUP3 MSTORE PUSH1 0x20 DUP3 ADD SWAP1 POP SWAP3 SWAP2 POP POP JUMP JUMPDEST PUSH32 0x4469646E27742073656E6420656E6F7567680000000000000000000000000000 PUSH0 DUP3 ADD MSTORE POP JUMP JUMPDEST PUSH0 PUSH2 0x4E7 PUSH1 0x12 DUP4 PUSH2 0x4A3 JUMP JUMPDEST SWAP2 POP PUSH2 0x4F2 DUP3 PUSH2 0x4B3 JUMP JUMPDEST PUSH1 0x20 DUP3 ADD SWAP1 POP SWAP2 SWAP1 POP JUMP JUMPDEST PUSH0 PUSH1 0x20 DUP3 ADD SWAP1 POP DUP2 DUP2 SUB PUSH0 DUP4 ADD MSTORE PUSH2 0x514 DUP2 PUSH2 0x4DB JUMP JUMPDEST SWAP1 POP SWAP2 SWAP1 POP JUMP INVALID LOG2 PUSH5 0x6970667358 0x22 SLT KECCAK256 0x2D 0xE6 0x4F MSTORE8 0xE2 AND COINBASE 0xAE 0xD7 AND OR SWAP4 0xA6 BLOCKHASH 0xD9 0xBB CALLER 0xEB SWAP3 SWAP7 0xDF DUP4 0xE4 SIGNEXTEND STATICCALL OR 0xD0 0xA7 CHAINID 0xDB 0x4B 0xD9 PUSH5 0x736F6C6343 STOP ADDMOD NOT STOP CALLER "
				},
				"gasEstimates": {
					"creation": {
						"codeDepositCost": "272200",
						"executionCost": "22415",
						"totalCost": "294615"
					},
					"external": {
						"fund()": "infinite",
						"getConversionRate(uint256)": "infinite",
						"getPrice()": "infinite"
					}
				},
				"methodIdentifiers": {
					"fund()": "b60d4288",
					"getConversionRate(uint256)": "6e5b6b28",
					"getPrice()": "98d5fdca"
				}
			},
			"storageLayout": {
				"storage": [
					{
						"astId": 54,
						"contract": "contracts/FundMe.sol:FundMe",
						"label": "minimumUSD",
						"offset": 0,
						"slot": "0",
						"type": "t_uint256"
					}
				],
				"types": {
					"t_uint256": {
						"encoding": "inplace",
						"label": "uint256",
						"numberOfBytes": "32"
					}
				}
			},
			"userdoc": {
				"kind": "user",
				"methods": {},
				"version": 1
			}
		}
	}
}