{
	"contracts/FundMe.sol": {
		"SimpleDEX": {
			"abi": [
				{
					"inputs": [
						{
							"internalType": "address",
							"name": "_tokenA",
							"type": "address"
						},
						{
							"internalType": "address",
							"name": "_tokenB",
							"type": "address"
						},
						{
							"internalType": "uint256",
							"name": "_exchangeRate",
							"type": "uint256"
						}
					],
					"stateMutability": "nonpayable",
					"type": "constructor"
				},
				{
					"anonymous": false,
					"inputs": [
						{
							"indexed": true,
							"internalType": "address",
							"name": "user",
							"type": "address"
						},
						{
							"indexed": false,
							"internalType": "uint256",
							"name": "amountA",
							"type": "uint256"
						},
						{
							"indexed": false,
							"internalType": "uint256",
							"name": "amountB",
							"type": "uint256"
						}
					],
					"name": "ExchangeTokenAForTokenB",
					"type": "event"
				},
				{
					"anonymous": false,
					"inputs": [
						{
							"indexed": true,
							"internalType": "address",
							"name": "user",
							"type": "address"
						},
						{
							"indexed": false,
							"internalType": "uint256",
							"name": "amountB",
							"type": "uint256"
						},
						{
							"indexed": false,
							"internalType": "uint256",
							"name": "amountA",
							"type": "uint256"
						}
					],
					"name": "ExchangeTokenBForTokenA",
					"type": "event"
				},
				{
					"inputs": [],
					"name": "exchangeRate",
					"outputs": [
						{
							"internalType": "uint256",
							"name": "",
							"type": "uint256"
						}
					],
					"stateMutability": "view",
					"type": "function"
				},
				{
					"inputs": [
						{
							"internalType": "uint256",
							"name": "amountA",
							"type": "uint256"
						}
					],
					"name": "exchangeTokenAForTokenB",
					"outputs": [],
					"stateMutability": "nonpayable",
					"type": "function"
				},
				{
					"inputs": [
						{
							"internalType": "uint256",
							"name": "amountB",
							"type": "uint256"
						}
					],
					"name": "exchangeTokenBForTokenA",
					"outputs": [],
					"stateMutability": "nonpayable",
					"type": "function"
				},
				{
					"inputs": [],
					"name": "owner",
					"outputs": [
						{
							"internalType": "address",
							"name": "",
							"type": "address"
						}
					],
					"stateMutability": "view",
					"type": "function"
				},
				{
					"inputs": [
						{
							"internalType": "uint256",
							"name": "_newRate",
							"type": "uint256"
						}
					],
					"name": "setExchangeRate",
					"outputs": [],
					"stateMutability": "nonpayable",
					"type": "function"
				},
				{
					"inputs": [],
					"name": "tokenA",
					"outputs": [
						{
							"internalType": "contract IERC20",
							"name": "",
							"type": "address"
						}
					],
					"stateMutability": "view",
					"type": "function"
				},
				{
					"inputs": [],
					"name": "tokenB",
					"outputs": [
						{
							"internalType": "contract IERC20",
							"name": "",
							"type": "address"
						}
					],
					"stateMutability": "view",
					"type": "function"
				}
			],
			"devdoc": {
				"kind": "dev",
				"methods": {},
				"version": 1
			},
			"evm": {
				"assembly": "    /* \"contracts/FundMe.sol\":119:1857  contract SimpleDEX {... */\n  mstore(0x40, 0x80)\n    /* \"contracts/FundMe.sol\":378:585  constructor(address _tokenA, address _tokenB, uint _exchangeRate) {... */\n  callvalue\n  dup1\n  iszero\n  tag_1\n  jumpi\n  0x00\n  dup1\n  revert\ntag_1:\n  pop\n  mload(0x40)\n  sub(codesize, bytecodeSize)\n  dup1\n  bytecodeSize\n  dup4\n  codecopy\n  dup2\n  dup2\n  add\n  0x40\n  mstore\n  dup2\n  add\n  swap1\n  tag_2\n  swap2\n  swap1\n  tag_3\n  jump\t// in\ntag_2:\n    /* \"contracts/FundMe.sol\":462:472  msg.sender */\n  caller\n    /* \"contracts/FundMe.sol\":454:459  owner */\n  0x00\n  dup1\n    /* \"contracts/FundMe.sol\":454:472  owner = msg.sender */\n  0x0100\n  exp\n  dup2\n  sload\n  dup2\n  0xffffffffffffffffffffffffffffffffffffffff\n  mul\n  not\n  and\n  swap1\n  dup4\n  0xffffffffffffffffffffffffffffffffffffffff\n  and\n  mul\n  or\n  swap1\n  sstore\n  pop\n    /* \"contracts/FundMe.sol\":498:505  _tokenA */\n  dup3\n    /* \"contracts/FundMe.sol\":482:488  tokenA */\n  0x01\n  0x00\n    /* \"contracts/FundMe.sol\":482:506  tokenA = IERC20(_tokenA) */\n  0x0100\n  exp\n  dup2\n  sload\n  dup2\n  0xffffffffffffffffffffffffffffffffffffffff\n  mul\n  not\n  and\n  swap1\n  dup4\n  0xffffffffffffffffffffffffffffffffffffffff\n  and\n  mul\n  or\n  swap1\n  sstore\n  pop\n    /* \"contracts/FundMe.sol\":532:539  _tokenB */\n  dup2\n    /* \"contracts/FundMe.sol\":516:522  tokenB */\n  0x02\n  0x00\n    /* \"contracts/FundMe.sol\":516:540  tokenB = IERC20(_tokenB) */\n  0x0100\n  exp\n  dup2\n  sload\n  dup2\n  0xffffffffffffffffffffffffffffffffffffffff\n  mul\n  not\n  and\n  swap1\n  dup4\n  0xffffffffffffffffffffffffffffffffffffffff\n  and\n  mul\n  or\n  swap1\n  sstore\n  pop\n    /* \"contracts/FundMe.sol\":565:578  _exchangeRate */\n  dup1\n    /* \"contracts/FundMe.sol\":550:562  exchangeRate */\n  0x03\n    /* \"contracts/FundMe.sol\":550:578  exchangeRate = _exchangeRate */\n  dup2\n  swap1\n  sstore\n  pop\n    /* \"contracts/FundMe.sol\":378:585  constructor(address _tokenA, address _tokenB, uint _exchangeRate) {... */\n  pop\n  pop\n  pop\n    /* \"contracts/FundMe.sol\":119:1857  contract SimpleDEX {... */\n  jump(tag_6)\n    /* \"#utility.yul\":88:205   */\ntag_8:\n    /* \"#utility.yul\":197:198   */\n  0x00\n    /* \"#utility.yul\":194:195   */\n  dup1\n    /* \"#utility.yul\":187:199   */\n  revert\n    /* \"#utility.yul\":334:460   */\ntag_10:\n    /* \"#utility.yul\":371:378   */\n  0x00\n    /* \"#utility.yul\":411:453   */\n  0xffffffffffffffffffffffffffffffffffffffff\n    /* \"#utility.yul\":404:409   */\n  dup3\n    /* \"#utility.yul\":400:454   */\n  and\n    /* \"#utility.yul\":389:454   */\n  swap1\n  pop\n    /* \"#utility.yul\":334:460   */\n  swap2\n  swap1\n  pop\n  jump\t// out\n    /* \"#utility.yul\":466:562   */\ntag_11:\n    /* \"#utility.yul\":503:510   */\n  0x00\n    /* \"#utility.yul\":532:556   */\n  tag_23\n    /* \"#utility.yul\":550:555   */\n  dup3\n    /* \"#utility.yul\":532:556   */\n  tag_10\n  jump\t// in\ntag_23:\n    /* \"#utility.yul\":521:556   */\n  swap1\n  pop\n    /* \"#utility.yul\":466:562   */\n  swap2\n  swap1\n  pop\n  jump\t// out\n    /* \"#utility.yul\":568:690   */\ntag_12:\n    /* \"#utility.yul\":641:665   */\n  tag_25\n    /* \"#utility.yul\":659:664   */\n  dup2\n    /* \"#utility.yul\":641:665   */\n  tag_11\n  jump\t// in\ntag_25:\n    /* \"#utility.yul\":634:639   */\n  dup2\n    /* \"#utility.yul\":631:666   */\n  eq\n    /* \"#utility.yul\":621:684   */\n  tag_26\n  jumpi\n    /* \"#utility.yul\":680:681   */\n  0x00\n    /* \"#utility.yul\":677:678   */\n  dup1\n    /* \"#utility.yul\":670:682   */\n  revert\n    /* \"#utility.yul\":621:684   */\ntag_26:\n    /* \"#utility.yul\":568:690   */\n  pop\n  jump\t// out\n    /* \"#utility.yul\":696:839   */\ntag_13:\n    /* \"#utility.yul\":753:758   */\n  0x00\n    /* \"#utility.yul\":784:790   */\n  dup2\n    /* \"#utility.yul\":778:791   */\n  mload\n    /* \"#utility.yul\":769:791   */\n  swap1\n  pop\n    /* \"#utility.yul\":800:833   */\n  tag_28\n    /* \"#utility.yul\":827:832   */\n  dup2\n    /* \"#utility.yul\":800:833   */\n  tag_12\n  jump\t// in\ntag_28:\n    /* \"#utility.yul\":696:839   */\n  swap3\n  swap2\n  pop\n  pop\n  jump\t// out\n    /* \"#utility.yul\":845:922   */\ntag_14:\n    /* \"#utility.yul\":882:889   */\n  0x00\n    /* \"#utility.yul\":911:916   */\n  dup2\n    /* \"#utility.yul\":900:916   */\n  swap1\n  pop\n    /* \"#utility.yul\":845:922   */\n  swap2\n  swap1\n  pop\n  jump\t// out\n    /* \"#utility.yul\":928:1050   */\ntag_15:\n    /* \"#utility.yul\":1001:1025   */\n  tag_31\n    /* \"#utility.yul\":1019:1024   */\n  dup2\n    /* \"#utility.yul\":1001:1025   */\n  tag_14\n  jump\t// in\ntag_31:\n    /* \"#utility.yul\":994:999   */\n  dup2\n    /* \"#utility.yul\":991:1026   */\n  eq\n    /* \"#utility.yul\":981:1044   */\n  tag_32\n  jumpi\n    /* \"#utility.yul\":1040:1041   */\n  0x00\n    /* \"#utility.yul\":1037:1038   */\n  dup1\n    /* \"#utility.yul\":1030:1042   */\n  revert\n    /* \"#utility.yul\":981:1044   */\ntag_32:\n    /* \"#utility.yul\":928:1050   */\n  pop\n  jump\t// out\n    /* \"#utility.yul\":1056:1199   */\ntag_16:\n    /* \"#utility.yul\":1113:1118   */\n  0x00\n    /* \"#utility.yul\":1144:1150   */\n  dup2\n    /* \"#utility.yul\":1138:1151   */\n  mload\n    /* \"#utility.yul\":1129:1151   */\n  swap1\n  pop\n    /* \"#utility.yul\":1160:1193   */\n  tag_34\n    /* \"#utility.yul\":1187:1192   */\n  dup2\n    /* \"#utility.yul\":1160:1193   */\n  tag_15\n  jump\t// in\ntag_34:\n    /* \"#utility.yul\":1056:1199   */\n  swap3\n  swap2\n  pop\n  pop\n  jump\t// out\n    /* \"#utility.yul\":1205:1868   */\ntag_3:\n    /* \"#utility.yul\":1293:1299   */\n  0x00\n    /* \"#utility.yul\":1301:1307   */\n  dup1\n    /* \"#utility.yul\":1309:1315   */\n  0x00\n    /* \"#utility.yul\":1358:1360   */\n  0x60\n    /* \"#utility.yul\":1346:1355   */\n  dup5\n    /* \"#utility.yul\":1337:1344   */\n  dup7\n    /* \"#utility.yul\":1333:1356   */\n  sub\n    /* \"#utility.yul\":1329:1361   */\n  slt\n    /* \"#utility.yul\":1326:1445   */\n  iszero\n  tag_36\n  jumpi\n    /* \"#utility.yul\":1364:1443   */\n  tag_37\n  tag_8\n  jump\t// in\ntag_37:\n    /* \"#utility.yul\":1326:1445   */\ntag_36:\n    /* \"#utility.yul\":1484:1485   */\n  0x00\n    /* \"#utility.yul\":1509:1573   */\n  tag_38\n    /* \"#utility.yul\":1565:1572   */\n  dup7\n    /* \"#utility.yul\":1556:1562   */\n  dup3\n    /* \"#utility.yul\":1545:1554   */\n  dup8\n    /* \"#utility.yul\":1541:1563   */\n  add\n    /* \"#utility.yul\":1509:1573   */\n  tag_13\n  jump\t// in\ntag_38:\n    /* \"#utility.yul\":1499:1573   */\n  swap4\n  pop\n    /* \"#utility.yul\":1455:1583   */\n  pop\n    /* \"#utility.yul\":1622:1624   */\n  0x20\n    /* \"#utility.yul\":1648:1712   */\n  tag_39\n    /* \"#utility.yul\":1704:1711   */\n  dup7\n    /* \"#utility.yul\":1695:1701   */\n  dup3\n    /* \"#utility.yul\":1684:1693   */\n  dup8\n    /* \"#utility.yul\":1680:1702   */\n  add\n    /* \"#utility.yul\":1648:1712   */\n  tag_13\n  jump\t// in\ntag_39:\n    /* \"#utility.yul\":1638:1712   */\n  swap3\n  pop\n    /* \"#utility.yul\":1593:1722   */\n  pop\n    /* \"#utility.yul\":1761:1763   */\n  0x40\n    /* \"#utility.yul\":1787:1851   */\n  tag_40\n    /* \"#utility.yul\":1843:1850   */\n  dup7\n    /* \"#utility.yul\":1834:1840   */\n  dup3\n    /* \"#utility.yul\":1823:1832   */\n  dup8\n    /* \"#utility.yul\":1819:1841   */\n  add\n    /* \"#utility.yul\":1787:1851   */\n  tag_16\n  jump\t// in\ntag_40:\n    /* \"#utility.yul\":1777:1851   */\n  swap2\n  pop\n    /* \"#utility.yul\":1732:1861   */\n  pop\n    /* \"#utility.yul\":1205:1868   */\n  swap3\n  pop\n  swap3\n  pop\n  swap3\n  jump\t// out\n    /* \"contracts/FundMe.sol\":119:1857  contract SimpleDEX {... */\ntag_6:\n  dataSize(sub_0)\n  dup1\n  dataOffset(sub_0)\n  0x00\n  codecopy\n  0x00\n  return\nstop\n\nsub_0: assembly {\n        /* \"contracts/FundMe.sol\":119:1857  contract SimpleDEX {... */\n      mstore(0x40, 0x80)\n      callvalue\n      dup1\n      iszero\n      tag_1\n      jumpi\n      0x00\n      dup1\n      revert\n    tag_1:\n      pop\n      jumpi(tag_2, lt(calldatasize, 0x04))\n      shr(0xe0, calldataload(0x00))\n      dup1\n      0x5f64b55b\n      gt\n      tag_10\n      jumpi\n      dup1\n      0x5f64b55b\n      eq\n      tag_6\n      jumpi\n      dup1\n      0x8da5cb5b\n      eq\n      tag_7\n      jumpi\n      dup1\n      0xdb068e0e\n      eq\n      tag_8\n      jumpi\n      dup1\n      0xe4b80048\n      eq\n      tag_9\n      jumpi\n      jump(tag_2)\n    tag_10:\n      dup1\n      0x0fc63d10\n      eq\n      tag_3\n      jumpi\n      dup1\n      0x3494b099\n      eq\n      tag_4\n      jumpi\n      dup1\n      0x3ba0b9a9\n      eq\n      tag_5\n      jumpi\n    tag_2:\n      0x00\n      dup1\n      revert\n        /* \"contracts/FundMe.sol\":170:190  IERC20 public tokenA */\n    tag_3:\n      tag_11\n      tag_12\n      jump\t// in\n    tag_11:\n      mload(0x40)\n      tag_13\n      swap2\n      swap1\n      tag_14\n      jump\t// in\n    tag_13:\n      mload(0x40)\n      dup1\n      swap2\n      sub\n      swap1\n      return\n        /* \"contracts/FundMe.sol\":694:1186  function exchangeTokenAForTokenB(uint amountA) public {... */\n    tag_4:\n      tag_15\n      0x04\n      dup1\n      calldatasize\n      sub\n      dup2\n      add\n      swap1\n      tag_16\n      swap2\n      swap1\n      tag_17\n      jump\t// in\n    tag_16:\n      tag_18\n      jump\t// in\n    tag_15:\n      stop\n        /* \"contracts/FundMe.sol\":222:246  uint public exchangeRate */\n    tag_5:\n      tag_19\n      tag_20\n      jump\t// in\n    tag_19:\n      mload(0x40)\n      tag_21\n      swap2\n      swap1\n      tag_22\n      jump\t// in\n    tag_21:\n      mload(0x40)\n      dup1\n      swap2\n      sub\n      swap1\n      return\n        /* \"contracts/FundMe.sol\":196:216  IERC20 public tokenB */\n    tag_6:\n      tag_23\n      tag_24\n      jump\t// in\n    tag_23:\n      mload(0x40)\n      tag_25\n      swap2\n      swap1\n      tag_14\n      jump\t// in\n    tag_25:\n      mload(0x40)\n      dup1\n      swap2\n      sub\n      swap1\n      return\n        /* \"contracts/FundMe.sol\":144:164  address public owner */\n    tag_7:\n      tag_26\n      tag_27\n      jump\t// in\n    tag_26:\n      mload(0x40)\n      tag_28\n      swap2\n      swap1\n      tag_29\n      jump\t// in\n    tag_28:\n      mload(0x40)\n      dup1\n      swap2\n      sub\n      swap1\n      return\n        /* \"contracts/FundMe.sol\":591:688  function setExchangeRate(uint _newRate) public onlyOwner {... */\n    tag_8:\n      tag_30\n      0x04\n      dup1\n      calldatasize\n      sub\n      dup2\n      add\n      swap1\n      tag_31\n      swap2\n      swap1\n      tag_17\n      jump\t// in\n    tag_31:\n      tag_32\n      jump\t// in\n    tag_30:\n      stop\n        /* \"contracts/FundMe.sol\":1192:1684  function exchangeTokenBForTokenA(uint amountB) public {... */\n    tag_9:\n      tag_33\n      0x04\n      dup1\n      calldatasize\n      sub\n      dup2\n      add\n      swap1\n      tag_34\n      swap2\n      swap1\n      tag_17\n      jump\t// in\n    tag_34:\n      tag_35\n      jump\t// in\n    tag_33:\n      stop\n        /* \"contracts/FundMe.sol\":170:190  IERC20 public tokenA */\n    tag_12:\n      0x01\n      0x00\n      swap1\n      sload\n      swap1\n      0x0100\n      exp\n      swap1\n      div\n      0xffffffffffffffffffffffffffffffffffffffff\n      and\n      dup2\n      jump\t// out\n        /* \"contracts/FundMe.sol\":694:1186  function exchangeTokenAForTokenB(uint amountA) public {... */\n    tag_18:\n        /* \"contracts/FundMe.sol\":776:777  0 */\n      0x00\n        /* \"contracts/FundMe.sol\":766:773  amountA */\n      dup2\n        /* \"contracts/FundMe.sol\":766:777  amountA > 0 */\n      gt\n        /* \"contracts/FundMe.sol\":758:811  require(amountA > 0, \"Amount must be greater than 0\") */\n      tag_37\n      jumpi\n      mload(0x40)\n      0x08c379a000000000000000000000000000000000000000000000000000000000\n      dup2\n      mstore\n      0x04\n      add\n      tag_38\n      swap1\n      tag_39\n      jump\t// in\n    tag_38:\n      mload(0x40)\n      dup1\n      swap2\n      sub\n      swap1\n      revert\n    tag_37:\n        /* \"contracts/FundMe.sol\":874:886  exchangeRate */\n      sload(0x03)\n        /* \"contracts/FundMe.sol\":864:871  amountA */\n      dup2\n        /* \"contracts/FundMe.sol\":864:886  amountA * exchangeRate */\n      tag_40\n      swap2\n      swap1\n      tag_41\n      jump\t// in\n    tag_40:\n        /* \"contracts/FundMe.sol\":829:835  tokenB */\n      0x02\n      0x00\n      swap1\n      sload\n      swap1\n      0x0100\n      exp\n      swap1\n      div\n      0xffffffffffffffffffffffffffffffffffffffff\n      and\n        /* \"contracts/FundMe.sol\":829:845  tokenB.balanceOf */\n      0xffffffffffffffffffffffffffffffffffffffff\n      and\n      0x70a08231\n        /* \"contracts/FundMe.sol\":854:858  this */\n      address\n        /* \"contracts/FundMe.sol\":829:860  tokenB.balanceOf(address(this)) */\n      mload(0x40)\n      dup3\n      0xffffffff\n      and\n      0xe0\n      shl\n      dup2\n      mstore\n      0x04\n      add\n      tag_42\n      swap2\n      swap1\n      tag_29\n      jump\t// in\n    tag_42:\n      0x20\n      mload(0x40)\n      dup1\n      dup4\n      sub\n      dup2\n      dup7\n      gas\n      staticcall\n      iszero\n      dup1\n      iszero\n      tag_44\n      jumpi\n      returndatasize\n      0x00\n      dup1\n      returndatacopy\n      revert(0x00, returndatasize)\n    tag_44:\n      pop\n      pop\n      pop\n      pop\n      mload(0x40)\n      returndatasize\n      not(0x1f)\n      0x1f\n      dup3\n      add\n      and\n      dup3\n      add\n      dup1\n      0x40\n      mstore\n      pop\n      dup2\n      add\n      swap1\n      tag_45\n      swap2\n      swap1\n      tag_46\n      jump\t// in\n    tag_45:\n        /* \"contracts/FundMe.sol\":829:886  tokenB.balanceOf(address(this)) >= amountA * exchangeRate */\n      lt\n      iszero\n        /* \"contracts/FundMe.sol\":821:932  require(tokenB.balanceOf(address(this)) >= amountA * exchangeRate, \"Not enough tokenB to fulfill the exchange\") */\n      tag_47\n      jumpi\n      mload(0x40)\n      0x08c379a000000000000000000000000000000000000000000000000000000000\n      dup2\n      mstore\n      0x04\n      add\n      tag_48\n      swap1\n      tag_49\n      jump\t// in\n    tag_48:\n      mload(0x40)\n      dup1\n      swap2\n      sub\n      swap1\n      revert\n    tag_47:\n        /* \"contracts/FundMe.sol\":966:972  tokenA */\n      0x01\n      0x00\n      swap1\n      sload\n      swap1\n      0x0100\n      exp\n      swap1\n      div\n      0xffffffffffffffffffffffffffffffffffffffff\n      and\n        /* \"contracts/FundMe.sol\":966:985  tokenA.transferFrom */\n      0xffffffffffffffffffffffffffffffffffffffff\n      and\n      0x23b872dd\n        /* \"contracts/FundMe.sol\":986:996  msg.sender */\n      caller\n        /* \"contracts/FundMe.sol\":1006:1010  this */\n      address\n        /* \"contracts/FundMe.sol\":1013:1020  amountA */\n      dup5\n        /* \"contracts/FundMe.sol\":966:1021  tokenA.transferFrom(msg.sender, address(this), amountA) */\n      mload(0x40)\n      dup5\n      0xffffffff\n      and\n      0xe0\n      shl\n      dup2\n      mstore\n      0x04\n      add\n      tag_50\n      swap4\n      swap3\n      swap2\n      swap1\n      tag_51\n      jump\t// in\n    tag_50:\n      0x20\n      mload(0x40)\n      dup1\n      dup4\n      sub\n      dup2\n      0x00\n      dup8\n      gas\n      call\n      iszero\n      dup1\n      iszero\n      tag_53\n      jumpi\n      returndatasize\n      0x00\n      dup1\n      returndatacopy\n      revert(0x00, returndatasize)\n    tag_53:\n      pop\n      pop\n      pop\n      pop\n      mload(0x40)\n      returndatasize\n      not(0x1f)\n      0x1f\n      dup3\n      add\n      and\n      dup3\n      add\n      dup1\n      0x40\n      mstore\n      pop\n      dup2\n      add\n      swap1\n      tag_54\n      swap2\n      swap1\n      tag_55\n      jump\t// in\n    tag_54:\n      pop\n        /* \"contracts/FundMe.sol\":1035:1041  tokenB */\n      0x02\n      0x00\n      swap1\n      sload\n      swap1\n      0x0100\n      exp\n      swap1\n      div\n      0xffffffffffffffffffffffffffffffffffffffff\n      and\n        /* \"contracts/FundMe.sol\":1035:1050  tokenB.transfer */\n      0xffffffffffffffffffffffffffffffffffffffff\n      and\n      0xa9059cbb\n        /* \"contracts/FundMe.sol\":1051:1061  msg.sender */\n      caller\n        /* \"contracts/FundMe.sol\":1073:1085  exchangeRate */\n      sload(0x03)\n        /* \"contracts/FundMe.sol\":1063:1070  amountA */\n      dup5\n        /* \"contracts/FundMe.sol\":1063:1085  amountA * exchangeRate */\n      mul\n        /* \"contracts/FundMe.sol\":1035:1086  tokenB.transfer(msg.sender, amountA * exchangeRate) */\n      mload(0x40)\n      dup4\n      0xffffffff\n      and\n      0xe0\n      shl\n      dup2\n      mstore\n      0x04\n      add\n      tag_56\n      swap3\n      swap2\n      swap1\n      tag_57\n      jump\t// in\n    tag_56:\n      0x20\n      mload(0x40)\n      dup1\n      dup4\n      sub\n      dup2\n      0x00\n      dup8\n      gas\n      call\n      iszero\n      dup1\n      iszero\n      tag_59\n      jumpi\n      returndatasize\n      0x00\n      dup1\n      returndatacopy\n      revert(0x00, returndatasize)\n    tag_59:\n      pop\n      pop\n      pop\n      pop\n      mload(0x40)\n      returndatasize\n      not(0x1f)\n      0x1f\n      dup3\n      add\n      and\n      dup3\n      add\n      dup1\n      0x40\n      mstore\n      pop\n      dup2\n      add\n      swap1\n      tag_60\n      swap2\n      swap1\n      tag_55\n      jump\t// in\n    tag_60:\n      pop\n        /* \"contracts/FundMe.sol\":1135:1145  msg.sender */\n      caller\n        /* \"contracts/FundMe.sol\":1111:1179  ExchangeTokenAForTokenB(msg.sender, amountA, amountA * exchangeRate) */\n      0xffffffffffffffffffffffffffffffffffffffff\n      and\n      0xe9aa0c9ef4ff638cbf0658e9ca79c852601c5cfa9a11ef499cca10df936d4b14\n        /* \"contracts/FundMe.sol\":1147:1154  amountA */\n      dup3\n        /* \"contracts/FundMe.sol\":1166:1178  exchangeRate */\n      sload(0x03)\n        /* \"contracts/FundMe.sol\":1156:1163  amountA */\n      dup5\n        /* \"contracts/FundMe.sol\":1156:1178  amountA * exchangeRate */\n      tag_61\n      swap2\n      swap1\n      tag_41\n      jump\t// in\n    tag_61:\n        /* \"contracts/FundMe.sol\":1111:1179  ExchangeTokenAForTokenB(msg.sender, amountA, amountA * exchangeRate) */\n      mload(0x40)\n      tag_62\n      swap3\n      swap2\n      swap1\n      tag_63\n      jump\t// in\n    tag_62:\n      mload(0x40)\n      dup1\n      swap2\n      sub\n      swap1\n      log2\n        /* \"contracts/FundMe.sol\":694:1186  function exchangeTokenAForTokenB(uint amountA) public {... */\n      pop\n      jump\t// out\n        /* \"contracts/FundMe.sol\":222:246  uint public exchangeRate */\n    tag_20:\n      sload(0x03)\n      dup2\n      jump\t// out\n        /* \"contracts/FundMe.sol\":196:216  IERC20 public tokenB */\n    tag_24:\n      0x02\n      0x00\n      swap1\n      sload\n      swap1\n      0x0100\n      exp\n      swap1\n      div\n      0xffffffffffffffffffffffffffffffffffffffff\n      and\n      dup2\n      jump\t// out\n        /* \"contracts/FundMe.sol\":144:164  address public owner */\n    tag_27:\n      0x00\n      dup1\n      sload\n      swap1\n      0x0100\n      exp\n      swap1\n      div\n      0xffffffffffffffffffffffffffffffffffffffff\n      and\n      dup2\n      jump\t// out\n        /* \"contracts/FundMe.sol\":591:688  function setExchangeRate(uint _newRate) public onlyOwner {... */\n    tag_32:\n        /* \"contracts/FundMe.sol\":306:311  owner */\n      0x00\n      dup1\n      sload\n      swap1\n      0x0100\n      exp\n      swap1\n      div\n      0xffffffffffffffffffffffffffffffffffffffff\n      and\n        /* \"contracts/FundMe.sol\":292:311  msg.sender == owner */\n      0xffffffffffffffffffffffffffffffffffffffff\n      and\n        /* \"contracts/FundMe.sol\":292:302  msg.sender */\n      caller\n        /* \"contracts/FundMe.sol\":292:311  msg.sender == owner */\n      0xffffffffffffffffffffffffffffffffffffffff\n      and\n      eq\n        /* \"contracts/FundMe.sol\":284:354  require(msg.sender == owner, \"Only the owner can perform this action\") */\n      tag_65\n      jumpi\n      mload(0x40)\n      0x08c379a000000000000000000000000000000000000000000000000000000000\n      dup2\n      mstore\n      0x04\n      add\n      tag_66\n      swap1\n      tag_67\n      jump\t// in\n    tag_66:\n      mload(0x40)\n      dup1\n      swap2\n      sub\n      swap1\n      revert\n    tag_65:\n        /* \"contracts/FundMe.sol\":673:681  _newRate */\n      dup1\n        /* \"contracts/FundMe.sol\":658:670  exchangeRate */\n      0x03\n        /* \"contracts/FundMe.sol\":658:681  exchangeRate = _newRate */\n      dup2\n      swap1\n      sstore\n      pop\n        /* \"contracts/FundMe.sol\":591:688  function setExchangeRate(uint _newRate) public onlyOwner {... */\n      pop\n      jump\t// out\n        /* \"contracts/FundMe.sol\":1192:1684  function exchangeTokenBForTokenA(uint amountB) public {... */\n    tag_35:\n        /* \"contracts/FundMe.sol\":1274:1275  0 */\n      0x00\n        /* \"contracts/FundMe.sol\":1264:1271  amountB */\n      dup2\n        /* \"contracts/FundMe.sol\":1264:1275  amountB > 0 */\n      gt\n        /* \"contracts/FundMe.sol\":1256:1309  require(amountB > 0, \"Amount must be greater than 0\") */\n      tag_70\n      jumpi\n      mload(0x40)\n      0x08c379a000000000000000000000000000000000000000000000000000000000\n      dup2\n      mstore\n      0x04\n      add\n      tag_71\n      swap1\n      tag_39\n      jump\t// in\n    tag_71:\n      mload(0x40)\n      dup1\n      swap2\n      sub\n      swap1\n      revert\n    tag_70:\n        /* \"contracts/FundMe.sol\":1372:1384  exchangeRate */\n      sload(0x03)\n        /* \"contracts/FundMe.sol\":1362:1369  amountB */\n      dup2\n        /* \"contracts/FundMe.sol\":1362:1384  amountB / exchangeRate */\n      tag_72\n      swap2\n      swap1\n      tag_73\n      jump\t// in\n    tag_72:\n        /* \"contracts/FundMe.sol\":1327:1333  tokenA */\n      0x01\n      0x00\n      swap1\n      sload\n      swap1\n      0x0100\n      exp\n      swap1\n      div\n      0xffffffffffffffffffffffffffffffffffffffff\n      and\n        /* \"contracts/FundMe.sol\":1327:1343  tokenA.balanceOf */\n      0xffffffffffffffffffffffffffffffffffffffff\n      and\n      0x70a08231\n        /* \"contracts/FundMe.sol\":1352:1356  this */\n      address\n        /* \"contracts/FundMe.sol\":1327:1358  tokenA.balanceOf(address(this)) */\n      mload(0x40)\n      dup3\n      0xffffffff\n      and\n      0xe0\n      shl\n      dup2\n      mstore\n      0x04\n      add\n      tag_74\n      swap2\n      swap1\n      tag_29\n      jump\t// in\n    tag_74:\n      0x20\n      mload(0x40)\n      dup1\n      dup4\n      sub\n      dup2\n      dup7\n      gas\n      staticcall\n      iszero\n      dup1\n      iszero\n      tag_76\n      jumpi\n      returndatasize\n      0x00\n      dup1\n      returndatacopy\n      revert(0x00, returndatasize)\n    tag_76:\n      pop\n      pop\n      pop\n      pop\n      mload(0x40)\n      returndatasize\n      not(0x1f)\n      0x1f\n      dup3\n      add\n      and\n      dup3\n      add\n      dup1\n      0x40\n      mstore\n      pop\n      dup2\n      add\n      swap1\n      tag_77\n      swap2\n      swap1\n      tag_46\n      jump\t// in\n    tag_77:\n        /* \"contracts/FundMe.sol\":1327:1384  tokenA.balanceOf(address(this)) >= amountB / exchangeRate */\n      lt\n      iszero\n        /* \"contracts/FundMe.sol\":1319:1430  require(tokenA.balanceOf(address(this)) >= amountB / exchangeRate, \"Not enough tokenA to fulfill the exchange\") */\n      tag_78\n      jumpi\n      mload(0x40)\n      0x08c379a000000000000000000000000000000000000000000000000000000000\n      dup2\n      mstore\n      0x04\n      add\n      tag_79\n      swap1\n      tag_80\n      jump\t// in\n    tag_79:\n      mload(0x40)\n      dup1\n      swap2\n      sub\n      swap1\n      revert\n    tag_78:\n        /* \"contracts/FundMe.sol\":1464:1470  tokenB */\n      0x02\n      0x00\n      swap1\n      sload\n      swap1\n      0x0100\n      exp\n      swap1\n      div\n      0xffffffffffffffffffffffffffffffffffffffff\n      and\n        /* \"contracts/FundMe.sol\":1464:1483  tokenB.transferFrom */\n      0xffffffffffffffffffffffffffffffffffffffff\n      and\n      0x23b872dd\n        /* \"contracts/FundMe.sol\":1484:1494  msg.sender */\n      caller\n        /* \"contracts/FundMe.sol\":1504:1508  this */\n      address\n        /* \"contracts/FundMe.sol\":1511:1518  amountB */\n      dup5\n        /* \"contracts/FundMe.sol\":1464:1519  tokenB.transferFrom(msg.sender, address(this), amountB) */\n      mload(0x40)\n      dup5\n      0xffffffff\n      and\n      0xe0\n      shl\n      dup2\n      mstore\n      0x04\n      add\n      tag_81\n      swap4\n      swap3\n      swap2\n      swap1\n      tag_51\n      jump\t// in\n    tag_81:\n      0x20\n      mload(0x40)\n      dup1\n      dup4\n      sub\n      dup2\n      0x00\n      dup8\n      gas\n      call\n      iszero\n      dup1\n      iszero\n      tag_83\n      jumpi\n      returndatasize\n      0x00\n      dup1\n      returndatacopy\n      revert(0x00, returndatasize)\n    tag_83:\n      pop\n      pop\n      pop\n      pop\n      mload(0x40)\n      returndatasize\n      not(0x1f)\n      0x1f\n      dup3\n      add\n      and\n      dup3\n      add\n      dup1\n      0x40\n      mstore\n      pop\n      dup2\n      add\n      swap1\n      tag_84\n      swap2\n      swap1\n      tag_55\n      jump\t// in\n    tag_84:\n      pop\n        /* \"contracts/FundMe.sol\":1533:1539  tokenA */\n      0x01\n      0x00\n      swap1\n      sload\n      swap1\n      0x0100\n      exp\n      swap1\n      div\n      0xffffffffffffffffffffffffffffffffffffffff\n      and\n        /* \"contracts/FundMe.sol\":1533:1548  tokenA.transfer */\n      0xffffffffffffffffffffffffffffffffffffffff\n      and\n      0xa9059cbb\n        /* \"contracts/FundMe.sol\":1549:1559  msg.sender */\n      caller\n        /* \"contracts/FundMe.sol\":1571:1583  exchangeRate */\n      sload(0x03)\n        /* \"contracts/FundMe.sol\":1561:1568  amountB */\n      dup5\n        /* \"contracts/FundMe.sol\":1561:1583  amountB / exchangeRate */\n      dup2\n      tag_85\n      jumpi\n      tag_86\n      tag_87\n      jump\t// in\n    tag_86:\n    tag_85:\n      div\n        /* \"contracts/FundMe.sol\":1533:1584  tokenA.transfer(msg.sender, amountB / exchangeRate) */\n      mload(0x40)\n      dup4\n      0xffffffff\n      and\n      0xe0\n      shl\n      dup2\n      mstore\n      0x04\n      add\n      tag_88\n      swap3\n      swap2\n      swap1\n      tag_57\n      jump\t// in\n    tag_88:\n      0x20\n      mload(0x40)\n      dup1\n      dup4\n      sub\n      dup2\n      0x00\n      dup8\n      gas\n      call\n      iszero\n      dup1\n      iszero\n      tag_90\n      jumpi\n      returndatasize\n      0x00\n      dup1\n      returndatacopy\n      revert(0x00, returndatasize)\n    tag_90:\n      pop\n      pop\n      pop\n      pop\n      mload(0x40)\n      returndatasize\n      not(0x1f)\n      0x1f\n      dup3\n      add\n      and\n      dup3\n      add\n      dup1\n      0x40\n      mstore\n      pop\n      dup2\n      add\n      swap1\n      tag_91\n      swap2\n      swap1\n      tag_55\n      jump\t// in\n    tag_91:\n      pop\n        /* \"contracts/FundMe.sol\":1633:1643  msg.sender */\n      caller\n        /* \"contracts/FundMe.sol\":1609:1677  ExchangeTokenBForTokenA(msg.sender, amountB, amountB / exchangeRate) */\n      0xffffffffffffffffffffffffffffffffffffffff\n      and\n      0x41ecb9b7e2ee42416fbb3877e43514588718a2320d0ecf2fa921494b768a2c7d\n        /* \"contracts/FundMe.sol\":1645:1652  amountB */\n      dup3\n        /* \"contracts/FundMe.sol\":1664:1676  exchangeRate */\n      sload(0x03)\n        /* \"contracts/FundMe.sol\":1654:1661  amountB */\n      dup5\n        /* \"contracts/FundMe.sol\":1654:1676  amountB / exchangeRate */\n      tag_92\n      swap2\n      swap1\n      tag_73\n      jump\t// in\n    tag_92:\n        /* \"contracts/FundMe.sol\":1609:1677  ExchangeTokenBForTokenA(msg.sender, amountB, amountB / exchangeRate) */\n      mload(0x40)\n      tag_93\n      swap3\n      swap2\n      swap1\n      tag_63\n      jump\t// in\n    tag_93:\n      mload(0x40)\n      dup1\n      swap2\n      sub\n      swap1\n      log2\n        /* \"contracts/FundMe.sol\":1192:1684  function exchangeTokenBForTokenA(uint amountB) public {... */\n      pop\n      jump\t// out\n        /* \"#utility.yul\":7:133   */\n    tag_94:\n        /* \"#utility.yul\":44:51   */\n      0x00\n        /* \"#utility.yul\":84:126   */\n      0xffffffffffffffffffffffffffffffffffffffff\n        /* \"#utility.yul\":77:82   */\n      dup3\n        /* \"#utility.yul\":73:127   */\n      and\n        /* \"#utility.yul\":62:127   */\n      swap1\n      pop\n        /* \"#utility.yul\":7:133   */\n      swap2\n      swap1\n      pop\n      jump\t// out\n        /* \"#utility.yul\":139:199   */\n    tag_95:\n        /* \"#utility.yul\":167:170   */\n      0x00\n        /* \"#utility.yul\":188:193   */\n      dup2\n        /* \"#utility.yul\":181:193   */\n      swap1\n      pop\n        /* \"#utility.yul\":139:199   */\n      swap2\n      swap1\n      pop\n      jump\t// out\n        /* \"#utility.yul\":205:347   */\n    tag_96:\n        /* \"#utility.yul\":255:264   */\n      0x00\n        /* \"#utility.yul\":288:341   */\n      tag_127\n        /* \"#utility.yul\":306:340   */\n      tag_128\n        /* \"#utility.yul\":315:339   */\n      tag_129\n        /* \"#utility.yul\":333:338   */\n      dup5\n        /* \"#utility.yul\":315:339   */\n      tag_94\n      jump\t// in\n    tag_129:\n        /* \"#utility.yul\":306:340   */\n      tag_95\n      jump\t// in\n    tag_128:\n        /* \"#utility.yul\":288:341   */\n      tag_94\n      jump\t// in\n    tag_127:\n        /* \"#utility.yul\":275:341   */\n      swap1\n      pop\n        /* \"#utility.yul\":205:347   */\n      swap2\n      swap1\n      pop\n      jump\t// out\n        /* \"#utility.yul\":353:479   */\n    tag_97:\n        /* \"#utility.yul\":403:412   */\n      0x00\n        /* \"#utility.yul\":436:473   */\n      tag_131\n        /* \"#utility.yul\":467:472   */\n      dup3\n        /* \"#utility.yul\":436:473   */\n      tag_96\n      jump\t// in\n    tag_131:\n        /* \"#utility.yul\":423:473   */\n      swap1\n      pop\n        /* \"#utility.yul\":353:479   */\n      swap2\n      swap1\n      pop\n      jump\t// out\n        /* \"#utility.yul\":485:625   */\n    tag_98:\n        /* \"#utility.yul\":549:558   */\n      0x00\n        /* \"#utility.yul\":582:619   */\n      tag_133\n        /* \"#utility.yul\":613:618   */\n      dup3\n        /* \"#utility.yul\":582:619   */\n      tag_97\n      jump\t// in\n    tag_133:\n        /* \"#utility.yul\":569:619   */\n      swap1\n      pop\n        /* \"#utility.yul\":485:625   */\n      swap2\n      swap1\n      pop\n      jump\t// out\n        /* \"#utility.yul\":631:790   */\n    tag_99:\n        /* \"#utility.yul\":732:783   */\n      tag_135\n        /* \"#utility.yul\":777:782   */\n      dup2\n        /* \"#utility.yul\":732:783   */\n      tag_98\n      jump\t// in\n    tag_135:\n        /* \"#utility.yul\":727:730   */\n      dup3\n        /* \"#utility.yul\":720:784   */\n      mstore\n        /* \"#utility.yul\":631:790   */\n      pop\n      pop\n      jump\t// out\n        /* \"#utility.yul\":796:1046   */\n    tag_14:\n        /* \"#utility.yul\":903:907   */\n      0x00\n        /* \"#utility.yul\":941:943   */\n      0x20\n        /* \"#utility.yul\":930:939   */\n      dup3\n        /* \"#utility.yul\":926:944   */\n      add\n        /* \"#utility.yul\":918:944   */\n      swap1\n      pop\n        /* \"#utility.yul\":954:1039   */\n      tag_137\n        /* \"#utility.yul\":1036:1037   */\n      0x00\n        /* \"#utility.yul\":1025:1034   */\n      dup4\n        /* \"#utility.yul\":1021:1038   */\n      add\n        /* \"#utility.yul\":1012:1018   */\n      dup5\n        /* \"#utility.yul\":954:1039   */\n      tag_99\n      jump\t// in\n    tag_137:\n        /* \"#utility.yul\":796:1046   */\n      swap3\n      swap2\n      pop\n      pop\n      jump\t// out\n        /* \"#utility.yul\":1133:1250   */\n    tag_101:\n        /* \"#utility.yul\":1242:1243   */\n      0x00\n        /* \"#utility.yul\":1239:1240   */\n      dup1\n        /* \"#utility.yul\":1232:1244   */\n      revert\n        /* \"#utility.yul\":1379:1456   */\n    tag_103:\n        /* \"#utility.yul\":1416:1423   */\n      0x00\n        /* \"#utility.yul\":1445:1450   */\n      dup2\n        /* \"#utility.yul\":1434:1450   */\n      swap1\n      pop\n        /* \"#utility.yul\":1379:1456   */\n      swap2\n      swap1\n      pop\n      jump\t// out\n        /* \"#utility.yul\":1462:1584   */\n    tag_104:\n        /* \"#utility.yul\":1535:1559   */\n      tag_143\n        /* \"#utility.yul\":1553:1558   */\n      dup2\n        /* \"#utility.yul\":1535:1559   */\n      tag_103\n      jump\t// in\n    tag_143:\n        /* \"#utility.yul\":1528:1533   */\n      dup2\n        /* \"#utility.yul\":1525:1560   */\n      eq\n        /* \"#utility.yul\":1515:1578   */\n      tag_144\n      jumpi\n        /* \"#utility.yul\":1574:1575   */\n      0x00\n        /* \"#utility.yul\":1571:1572   */\n      dup1\n        /* \"#utility.yul\":1564:1576   */\n      revert\n        /* \"#utility.yul\":1515:1578   */\n    tag_144:\n        /* \"#utility.yul\":1462:1584   */\n      pop\n      jump\t// out\n        /* \"#utility.yul\":1590:1729   */\n    tag_105:\n        /* \"#utility.yul\":1636:1641   */\n      0x00\n        /* \"#utility.yul\":1674:1680   */\n      dup2\n        /* \"#utility.yul\":1661:1681   */\n      calldataload\n        /* \"#utility.yul\":1652:1681   */\n      swap1\n      pop\n        /* \"#utility.yul\":1690:1723   */\n      tag_146\n        /* \"#utility.yul\":1717:1722   */\n      dup2\n        /* \"#utility.yul\":1690:1723   */\n      tag_104\n      jump\t// in\n    tag_146:\n        /* \"#utility.yul\":1590:1729   */\n      swap3\n      swap2\n      pop\n      pop\n      jump\t// out\n        /* \"#utility.yul\":1735:2064   */\n    tag_17:\n        /* \"#utility.yul\":1794:1800   */\n      0x00\n        /* \"#utility.yul\":1843:1845   */\n      0x20\n        /* \"#utility.yul\":1831:1840   */\n      dup3\n        /* \"#utility.yul\":1822:1829   */\n      dup5\n        /* \"#utility.yul\":1818:1841   */\n      sub\n        /* \"#utility.yul\":1814:1846   */\n      slt\n        /* \"#utility.yul\":1811:1930   */\n      iszero\n      tag_148\n      jumpi\n        /* \"#utility.yul\":1849:1928   */\n      tag_149\n      tag_101\n      jump\t// in\n    tag_149:\n        /* \"#utility.yul\":1811:1930   */\n    tag_148:\n        /* \"#utility.yul\":1969:1970   */\n      0x00\n        /* \"#utility.yul\":1994:2047   */\n      tag_150\n        /* \"#utility.yul\":2039:2046   */\n      dup5\n        /* \"#utility.yul\":2030:2036   */\n      dup3\n        /* \"#utility.yul\":2019:2028   */\n      dup6\n        /* \"#utility.yul\":2015:2037   */\n      add\n        /* \"#utility.yul\":1994:2047   */\n      tag_105\n      jump\t// in\n    tag_150:\n        /* \"#utility.yul\":1984:2047   */\n      swap2\n      pop\n        /* \"#utility.yul\":1940:2057   */\n      pop\n        /* \"#utility.yul\":1735:2064   */\n      swap3\n      swap2\n      pop\n      pop\n      jump\t// out\n        /* \"#utility.yul\":2070:2188   */\n    tag_106:\n        /* \"#utility.yul\":2157:2181   */\n      tag_152\n        /* \"#utility.yul\":2175:2180   */\n      dup2\n        /* \"#utility.yul\":2157:2181   */\n      tag_103\n      jump\t// in\n    tag_152:\n        /* \"#utility.yul\":2152:2155   */\n      dup3\n        /* \"#utility.yul\":2145:2182   */\n      mstore\n        /* \"#utility.yul\":2070:2188   */\n      pop\n      pop\n      jump\t// out\n        /* \"#utility.yul\":2194:2416   */\n    tag_22:\n        /* \"#utility.yul\":2287:2291   */\n      0x00\n        /* \"#utility.yul\":2325:2327   */\n      0x20\n        /* \"#utility.yul\":2314:2323   */\n      dup3\n        /* \"#utility.yul\":2310:2328   */\n      add\n        /* \"#utility.yul\":2302:2328   */\n      swap1\n      pop\n        /* \"#utility.yul\":2338:2409   */\n      tag_154\n        /* \"#utility.yul\":2406:2407   */\n      0x00\n        /* \"#utility.yul\":2395:2404   */\n      dup4\n        /* \"#utility.yul\":2391:2408   */\n      add\n        /* \"#utility.yul\":2382:2388   */\n      dup5\n        /* \"#utility.yul\":2338:2409   */\n      tag_106\n      jump\t// in\n    tag_154:\n        /* \"#utility.yul\":2194:2416   */\n      swap3\n      swap2\n      pop\n      pop\n      jump\t// out\n        /* \"#utility.yul\":2422:2518   */\n    tag_107:\n        /* \"#utility.yul\":2459:2466   */\n      0x00\n        /* \"#utility.yul\":2488:2512   */\n      tag_156\n        /* \"#utility.yul\":2506:2511   */\n      dup3\n        /* \"#utility.yul\":2488:2512   */\n      tag_94\n      jump\t// in\n    tag_156:\n        /* \"#utility.yul\":2477:2512   */\n      swap1\n      pop\n        /* \"#utility.yul\":2422:2518   */\n      swap2\n      swap1\n      pop\n      jump\t// out\n        /* \"#utility.yul\":2524:2642   */\n    tag_108:\n        /* \"#utility.yul\":2611:2635   */\n      tag_158\n        /* \"#utility.yul\":2629:2634   */\n      dup2\n        /* \"#utility.yul\":2611:2635   */\n      tag_107\n      jump\t// in\n    tag_158:\n        /* \"#utility.yul\":2606:2609   */\n      dup3\n        /* \"#utility.yul\":2599:2636   */\n      mstore\n        /* \"#utility.yul\":2524:2642   */\n      pop\n      pop\n      jump\t// out\n        /* \"#utility.yul\":2648:2870   */\n    tag_29:\n        /* \"#utility.yul\":2741:2745   */\n      0x00\n        /* \"#utility.yul\":2779:2781   */\n      0x20\n        /* \"#utility.yul\":2768:2777   */\n      dup3\n        /* \"#utility.yul\":2764:2782   */\n      add\n        /* \"#utility.yul\":2756:2782   */\n      swap1\n      pop\n        /* \"#utility.yul\":2792:2863   */\n      tag_160\n        /* \"#utility.yul\":2860:2861   */\n      0x00\n        /* \"#utility.yul\":2849:2858   */\n      dup4\n        /* \"#utility.yul\":2845:2862   */\n      add\n        /* \"#utility.yul\":2836:2842   */\n      dup5\n        /* \"#utility.yul\":2792:2863   */\n      tag_108\n      jump\t// in\n    tag_160:\n        /* \"#utility.yul\":2648:2870   */\n      swap3\n      swap2\n      pop\n      pop\n      jump\t// out\n        /* \"#utility.yul\":2876:3045   */\n    tag_109:\n        /* \"#utility.yul\":2960:2971   */\n      0x00\n        /* \"#utility.yul\":2994:3000   */\n      dup3\n        /* \"#utility.yul\":2989:2992   */\n      dup3\n        /* \"#utility.yul\":2982:3001   */\n      mstore\n        /* \"#utility.yul\":3034:3038   */\n      0x20\n        /* \"#utility.yul\":3029:3032   */\n      dup3\n        /* \"#utility.yul\":3025:3039   */\n      add\n        /* \"#utility.yul\":3010:3039   */\n      swap1\n      pop\n        /* \"#utility.yul\":2876:3045   */\n      swap3\n      swap2\n      pop\n      pop\n      jump\t// out\n        /* \"#utility.yul\":3051:3230   */\n    tag_110:\n        /* \"#utility.yul\":3191:3222   */\n      0x416d6f756e74206d7573742062652067726561746572207468616e2030000000\n        /* \"#utility.yul\":3187:3188   */\n      0x00\n        /* \"#utility.yul\":3179:3185   */\n      dup3\n        /* \"#utility.yul\":3175:3189   */\n      add\n        /* \"#utility.yul\":3168:3223   */\n      mstore\n        /* \"#utility.yul\":3051:3230   */\n      pop\n      jump\t// out\n        /* \"#utility.yul\":3236:3602   */\n    tag_111:\n        /* \"#utility.yul\":3378:3381   */\n      0x00\n        /* \"#utility.yul\":3399:3466   */\n      tag_164\n        /* \"#utility.yul\":3463:3465   */\n      0x1d\n        /* \"#utility.yul\":3458:3461   */\n      dup4\n        /* \"#utility.yul\":3399:3466   */\n      tag_109\n      jump\t// in\n    tag_164:\n        /* \"#utility.yul\":3392:3466   */\n      swap2\n      pop\n        /* \"#utility.yul\":3475:3568   */\n      tag_165\n        /* \"#utility.yul\":3564:3567   */\n      dup3\n        /* \"#utility.yul\":3475:3568   */\n      tag_110\n      jump\t// in\n    tag_165:\n        /* \"#utility.yul\":3593:3595   */\n      0x20\n        /* \"#utility.yul\":3588:3591   */\n      dup3\n        /* \"#utility.yul\":3584:3596   */\n      add\n        /* \"#utility.yul\":3577:3596   */\n      swap1\n      pop\n        /* \"#utility.yul\":3236:3602   */\n      swap2\n      swap1\n      pop\n      jump\t// out\n        /* \"#utility.yul\":3608:4027   */\n    tag_39:\n        /* \"#utility.yul\":3774:3778   */\n      0x00\n        /* \"#utility.yul\":3812:3814   */\n      0x20\n        /* \"#utility.yul\":3801:3810   */\n      dup3\n        /* \"#utility.yul\":3797:3815   */\n      add\n        /* \"#utility.yul\":3789:3815   */\n      swap1\n      pop\n        /* \"#utility.yul\":3861:3870   */\n      dup2\n        /* \"#utility.yul\":3855:3859   */\n      dup2\n        /* \"#utility.yul\":3851:3871   */\n      sub\n        /* \"#utility.yul\":3847:3848   */\n      0x00\n        /* \"#utility.yul\":3836:3845   */\n      dup4\n        /* \"#utility.yul\":3832:3849   */\n      add\n        /* \"#utility.yul\":3825:3872   */\n      mstore\n        /* \"#utility.yul\":3889:4020   */\n      tag_167\n        /* \"#utility.yul\":4015:4019   */\n      dup2\n        /* \"#utility.yul\":3889:4020   */\n      tag_111\n      jump\t// in\n    tag_167:\n        /* \"#utility.yul\":3881:4020   */\n      swap1\n      pop\n        /* \"#utility.yul\":3608:4027   */\n      swap2\n      swap1\n      pop\n      jump\t// out\n        /* \"#utility.yul\":4033:4213   */\n    tag_112:\n        /* \"#utility.yul\":4081:4158   */\n      0x4e487b7100000000000000000000000000000000000000000000000000000000\n        /* \"#utility.yul\":4078:4079   */\n      0x00\n        /* \"#utility.yul\":4071:4159   */\n      mstore\n        /* \"#utility.yul\":4178:4182   */\n      0x11\n        /* \"#utility.yul\":4175:4176   */\n      0x04\n        /* \"#utility.yul\":4168:4183   */\n      mstore\n        /* \"#utility.yul\":4202:4206   */\n      0x24\n        /* \"#utility.yul\":4199:4200   */\n      0x00\n        /* \"#utility.yul\":4192:4207   */\n      revert\n        /* \"#utility.yul\":4219:4629   */\n    tag_41:\n        /* \"#utility.yul\":4259:4266   */\n      0x00\n        /* \"#utility.yul\":4282:4302   */\n      tag_170\n        /* \"#utility.yul\":4300:4301   */\n      dup3\n        /* \"#utility.yul\":4282:4302   */\n      tag_103\n      jump\t// in\n    tag_170:\n        /* \"#utility.yul\":4277:4302   */\n      swap2\n      pop\n        /* \"#utility.yul\":4316:4336   */\n      tag_171\n        /* \"#utility.yul\":4334:4335   */\n      dup4\n        /* \"#utility.yul\":4316:4336   */\n      tag_103\n      jump\t// in\n    tag_171:\n        /* \"#utility.yul\":4311:4336   */\n      swap3\n      pop\n        /* \"#utility.yul\":4371:4372   */\n      dup3\n        /* \"#utility.yul\":4368:4369   */\n      dup3\n        /* \"#utility.yul\":4364:4373   */\n      mul\n        /* \"#utility.yul\":4393:4423   */\n      tag_172\n        /* \"#utility.yul\":4411:4422   */\n      dup2\n        /* \"#utility.yul\":4393:4423   */\n      tag_103\n      jump\t// in\n    tag_172:\n        /* \"#utility.yul\":4382:4423   */\n      swap2\n      pop\n        /* \"#utility.yul\":4572:4573   */\n      dup3\n        /* \"#utility.yul\":4563:4570   */\n      dup3\n        /* \"#utility.yul\":4559:4574   */\n      div\n        /* \"#utility.yul\":4556:4557   */\n      dup5\n        /* \"#utility.yul\":4553:4575   */\n      eq\n        /* \"#utility.yul\":4533:4534   */\n      dup4\n        /* \"#utility.yul\":4526:4535   */\n      iszero\n        /* \"#utility.yul\":4506:4589   */\n      or\n        /* \"#utility.yul\":4483:4622   */\n      tag_173\n      jumpi\n        /* \"#utility.yul\":4602:4620   */\n      tag_174\n      tag_112\n      jump\t// in\n    tag_174:\n        /* \"#utility.yul\":4483:4622   */\n    tag_173:\n        /* \"#utility.yul\":4267:4629   */\n      pop\n        /* \"#utility.yul\":4219:4629   */\n      swap3\n      swap2\n      pop\n      pop\n      jump\t// out\n        /* \"#utility.yul\":4635:4778   */\n    tag_113:\n        /* \"#utility.yul\":4692:4697   */\n      0x00\n        /* \"#utility.yul\":4723:4729   */\n      dup2\n        /* \"#utility.yul\":4717:4730   */\n      mload\n        /* \"#utility.yul\":4708:4730   */\n      swap1\n      pop\n        /* \"#utility.yul\":4739:4772   */\n      tag_176\n        /* \"#utility.yul\":4766:4771   */\n      dup2\n        /* \"#utility.yul\":4739:4772   */\n      tag_104\n      jump\t// in\n    tag_176:\n        /* \"#utility.yul\":4635:4778   */\n      swap3\n      swap2\n      pop\n      pop\n      jump\t// out\n        /* \"#utility.yul\":4784:5135   */\n    tag_46:\n        /* \"#utility.yul\":4854:4860   */\n      0x00\n        /* \"#utility.yul\":4903:4905   */\n      0x20\n        /* \"#utility.yul\":4891:4900   */\n      dup3\n        /* \"#utility.yul\":4882:4889   */\n      dup5\n        /* \"#utility.yul\":4878:4901   */\n      sub\n        /* \"#utility.yul\":4874:4906   */\n      slt\n        /* \"#utility.yul\":4871:4990   */\n      iszero\n      tag_178\n      jumpi\n        /* \"#utility.yul\":4909:4988   */\n      tag_179\n      tag_101\n      jump\t// in\n    tag_179:\n        /* \"#utility.yul\":4871:4990   */\n    tag_178:\n        /* \"#utility.yul\":5029:5030   */\n      0x00\n        /* \"#utility.yul\":5054:5118   */\n      tag_180\n        /* \"#utility.yul\":5110:5117   */\n      dup5\n        /* \"#utility.yul\":5101:5107   */\n      dup3\n        /* \"#utility.yul\":5090:5099   */\n      dup6\n        /* \"#utility.yul\":5086:5108   */\n      add\n        /* \"#utility.yul\":5054:5118   */\n      tag_113\n      jump\t// in\n    tag_180:\n        /* \"#utility.yul\":5044:5118   */\n      swap2\n      pop\n        /* \"#utility.yul\":5000:5128   */\n      pop\n        /* \"#utility.yul\":4784:5135   */\n      swap3\n      swap2\n      pop\n      pop\n      jump\t// out\n        /* \"#utility.yul\":5141:5369   */\n    tag_114:\n        /* \"#utility.yul\":5281:5315   */\n      0x4e6f7420656e6f75676820746f6b656e4220746f2066756c66696c6c20746865\n        /* \"#utility.yul\":5277:5278   */\n      0x00\n        /* \"#utility.yul\":5269:5275   */\n      dup3\n        /* \"#utility.yul\":5265:5279   */\n      add\n        /* \"#utility.yul\":5258:5316   */\n      mstore\n        /* \"#utility.yul\":5350:5361   */\n      0x2065786368616e67650000000000000000000000000000000000000000000000\n        /* \"#utility.yul\":5345:5347   */\n      0x20\n        /* \"#utility.yul\":5337:5343   */\n      dup3\n        /* \"#utility.yul\":5333:5348   */\n      add\n        /* \"#utility.yul\":5326:5362   */\n      mstore\n        /* \"#utility.yul\":5141:5369   */\n      pop\n      jump\t// out\n        /* \"#utility.yul\":5375:5741   */\n    tag_115:\n        /* \"#utility.yul\":5517:5520   */\n      0x00\n        /* \"#utility.yul\":5538:5605   */\n      tag_183\n        /* \"#utility.yul\":5602:5604   */\n      0x29\n        /* \"#utility.yul\":5597:5600   */\n      dup4\n        /* \"#utility.yul\":5538:5605   */\n      tag_109\n      jump\t// in\n    tag_183:\n        /* \"#utility.yul\":5531:5605   */\n      swap2\n      pop\n        /* \"#utility.yul\":5614:5707   */\n      tag_184\n        /* \"#utility.yul\":5703:5706   */\n      dup3\n        /* \"#utility.yul\":5614:5707   */\n      tag_114\n      jump\t// in\n    tag_184:\n        /* \"#utility.yul\":5732:5734   */\n      0x40\n        /* \"#utility.yul\":5727:5730   */\n      dup3\n        /* \"#utility.yul\":5723:5735   */\n      add\n        /* \"#utility.yul\":5716:5735   */\n      swap1\n      pop\n        /* \"#utility.yul\":5375:5741   */\n      swap2\n      swap1\n      pop\n      jump\t// out\n        /* \"#utility.yul\":5747:6166   */\n    tag_49:\n        /* \"#utility.yul\":5913:5917   */\n      0x00\n        /* \"#utility.yul\":5951:5953   */\n      0x20\n        /* \"#utility.yul\":5940:5949   */\n      dup3\n        /* \"#utility.yul\":5936:5954   */\n      add\n        /* \"#utility.yul\":5928:5954   */\n      swap1\n      pop\n        /* \"#utility.yul\":6000:6009   */\n      dup2\n        /* \"#utility.yul\":5994:5998   */\n      dup2\n        /* \"#utility.yul\":5990:6010   */\n      sub\n        /* \"#utility.yul\":5986:5987   */\n      0x00\n        /* \"#utility.yul\":5975:5984   */\n      dup4\n        /* \"#utility.yul\":5971:5988   */\n      add\n        /* \"#utility.yul\":5964:6011   */\n      mstore\n        /* \"#utility.yul\":6028:6159   */\n      tag_186\n        /* \"#utility.yul\":6154:6158   */\n      dup2\n        /* \"#utility.yul\":6028:6159   */\n      tag_115\n      jump\t// in\n    tag_186:\n        /* \"#utility.yul\":6020:6159   */\n      swap1\n      pop\n        /* \"#utility.yul\":5747:6166   */\n      swap2\n      swap1\n      pop\n      jump\t// out\n        /* \"#utility.yul\":6172:6614   */\n    tag_51:\n        /* \"#utility.yul\":6321:6325   */\n      0x00\n        /* \"#utility.yul\":6359:6361   */\n      0x60\n        /* \"#utility.yul\":6348:6357   */\n      dup3\n        /* \"#utility.yul\":6344:6362   */\n      add\n        /* \"#utility.yul\":6336:6362   */\n      swap1\n      pop\n        /* \"#utility.yul\":6372:6443   */\n      tag_188\n        /* \"#utility.yul\":6440:6441   */\n      0x00\n        /* \"#utility.yul\":6429:6438   */\n      dup4\n        /* \"#utility.yul\":6425:6442   */\n      add\n        /* \"#utility.yul\":6416:6422   */\n      dup7\n        /* \"#utility.yul\":6372:6443   */\n      tag_108\n      jump\t// in\n    tag_188:\n        /* \"#utility.yul\":6453:6525   */\n      tag_189\n        /* \"#utility.yul\":6521:6523   */\n      0x20\n        /* \"#utility.yul\":6510:6519   */\n      dup4\n        /* \"#utility.yul\":6506:6524   */\n      add\n        /* \"#utility.yul\":6497:6503   */\n      dup6\n        /* \"#utility.yul\":6453:6525   */\n      tag_108\n      jump\t// in\n    tag_189:\n        /* \"#utility.yul\":6535:6607   */\n      tag_190\n        /* \"#utility.yul\":6603:6605   */\n      0x40\n        /* \"#utility.yul\":6592:6601   */\n      dup4\n        /* \"#utility.yul\":6588:6606   */\n      add\n        /* \"#utility.yul\":6579:6585   */\n      dup5\n        /* \"#utility.yul\":6535:6607   */\n      tag_106\n      jump\t// in\n    tag_190:\n        /* \"#utility.yul\":6172:6614   */\n      swap5\n      swap4\n      pop\n      pop\n      pop\n      pop\n      jump\t// out\n        /* \"#utility.yul\":6620:6710   */\n    tag_116:\n        /* \"#utility.yul\":6654:6661   */\n      0x00\n        /* \"#utility.yul\":6697:6702   */\n      dup2\n        /* \"#utility.yul\":6690:6703   */\n      iszero\n        /* \"#utility.yul\":6683:6704   */\n      iszero\n        /* \"#utility.yul\":6672:6704   */\n      swap1\n      pop\n        /* \"#utility.yul\":6620:6710   */\n      swap2\n      swap1\n      pop\n      jump\t// out\n        /* \"#utility.yul\":6716:6832   */\n    tag_117:\n        /* \"#utility.yul\":6786:6807   */\n      tag_193\n        /* \"#utility.yul\":6801:6806   */\n      dup2\n        /* \"#utility.yul\":6786:6807   */\n      tag_116\n      jump\t// in\n    tag_193:\n        /* \"#utility.yul\":6779:6784   */\n      dup2\n        /* \"#utility.yul\":6776:6808   */\n      eq\n        /* \"#utility.yul\":6766:6826   */\n      tag_194\n      jumpi\n        /* \"#utility.yul\":6822:6823   */\n      0x00\n        /* \"#utility.yul\":6819:6820   */\n      dup1\n        /* \"#utility.yul\":6812:6824   */\n      revert\n        /* \"#utility.yul\":6766:6826   */\n    tag_194:\n        /* \"#utility.yul\":6716:6832   */\n      pop\n      jump\t// out\n        /* \"#utility.yul\":6838:6975   */\n    tag_118:\n        /* \"#utility.yul\":6892:6897   */\n      0x00\n        /* \"#utility.yul\":6923:6929   */\n      dup2\n        /* \"#utility.yul\":6917:6930   */\n      mload\n        /* \"#utility.yul\":6908:6930   */\n      swap1\n      pop\n        /* \"#utility.yul\":6939:6969   */\n      tag_196\n        /* \"#utility.yul\":6963:6968   */\n      dup2\n        /* \"#utility.yul\":6939:6969   */\n      tag_117\n      jump\t// in\n    tag_196:\n        /* \"#utility.yul\":6838:6975   */\n      swap3\n      swap2\n      pop\n      pop\n      jump\t// out\n        /* \"#utility.yul\":6981:7326   */\n    tag_55:\n        /* \"#utility.yul\":7048:7054   */\n      0x00\n        /* \"#utility.yul\":7097:7099   */\n      0x20\n        /* \"#utility.yul\":7085:7094   */\n      dup3\n        /* \"#utility.yul\":7076:7083   */\n      dup5\n        /* \"#utility.yul\":7072:7095   */\n      sub\n        /* \"#utility.yul\":7068:7100   */\n      slt\n        /* \"#utility.yul\":7065:7184   */\n      iszero\n      tag_198\n      jumpi\n        /* \"#utility.yul\":7103:7182   */\n      tag_199\n      tag_101\n      jump\t// in\n    tag_199:\n        /* \"#utility.yul\":7065:7184   */\n    tag_198:\n        /* \"#utility.yul\":7223:7224   */\n      0x00\n        /* \"#utility.yul\":7248:7309   */\n      tag_200\n        /* \"#utility.yul\":7301:7308   */\n      dup5\n        /* \"#utility.yul\":7292:7298   */\n      dup3\n        /* \"#utility.yul\":7281:7290   */\n      dup6\n        /* \"#utility.yul\":7277:7299   */\n      add\n        /* \"#utility.yul\":7248:7309   */\n      tag_118\n      jump\t// in\n    tag_200:\n        /* \"#utility.yul\":7238:7309   */\n      swap2\n      pop\n        /* \"#utility.yul\":7194:7319   */\n      pop\n        /* \"#utility.yul\":6981:7326   */\n      swap3\n      swap2\n      pop\n      pop\n      jump\t// out\n        /* \"#utility.yul\":7332:7664   */\n    tag_57:\n        /* \"#utility.yul\":7453:7457   */\n      0x00\n        /* \"#utility.yul\":7491:7493   */\n      0x40\n        /* \"#utility.yul\":7480:7489   */\n      dup3\n        /* \"#utility.yul\":7476:7494   */\n      add\n        /* \"#utility.yul\":7468:7494   */\n      swap1\n      pop\n        /* \"#utility.yul\":7504:7575   */\n      tag_202\n        /* \"#utility.yul\":7572:7573   */\n      0x00\n        /* \"#utility.yul\":7561:7570   */\n      dup4\n        /* \"#utility.yul\":7557:7574   */\n      add\n        /* \"#utility.yul\":7548:7554   */\n      dup6\n        /* \"#utility.yul\":7504:7575   */\n      tag_108\n      jump\t// in\n    tag_202:\n        /* \"#utility.yul\":7585:7657   */\n      tag_203\n        /* \"#utility.yul\":7653:7655   */\n      0x20\n        /* \"#utility.yul\":7642:7651   */\n      dup4\n        /* \"#utility.yul\":7638:7656   */\n      add\n        /* \"#utility.yul\":7629:7635   */\n      dup5\n        /* \"#utility.yul\":7585:7657   */\n      tag_106\n      jump\t// in\n    tag_203:\n        /* \"#utility.yul\":7332:7664   */\n      swap4\n      swap3\n      pop\n      pop\n      pop\n      jump\t// out\n        /* \"#utility.yul\":7670:8002   */\n    tag_63:\n        /* \"#utility.yul\":7791:7795   */\n      0x00\n        /* \"#utility.yul\":7829:7831   */\n      0x40\n        /* \"#utility.yul\":7818:7827   */\n      dup3\n        /* \"#utility.yul\":7814:7832   */\n      add\n        /* \"#utility.yul\":7806:7832   */\n      swap1\n      pop\n        /* \"#utility.yul\":7842:7913   */\n      tag_205\n        /* \"#utility.yul\":7910:7911   */\n      0x00\n        /* \"#utility.yul\":7899:7908   */\n      dup4\n        /* \"#utility.yul\":7895:7912   */\n      add\n        /* \"#utility.yul\":7886:7892   */\n      dup6\n        /* \"#utility.yul\":7842:7913   */\n      tag_106\n      jump\t// in\n    tag_205:\n        /* \"#utility.yul\":7923:7995   */\n      tag_206\n        /* \"#utility.yul\":7991:7993   */\n      0x20\n        /* \"#utility.yul\":7980:7989   */\n      dup4\n        /* \"#utility.yul\":7976:7994   */\n      add\n        /* \"#utility.yul\":7967:7973   */\n      dup5\n        /* \"#utility.yul\":7923:7995   */\n      tag_106\n      jump\t// in\n    tag_206:\n        /* \"#utility.yul\":7670:8002   */\n      swap4\n      swap3\n      pop\n      pop\n      pop\n      jump\t// out\n        /* \"#utility.yul\":8008:8233   */\n    tag_119:\n        /* \"#utility.yul\":8148:8182   */\n      0x4f6e6c7920746865206f776e65722063616e20706572666f726d207468697320\n        /* \"#utility.yul\":8144:8145   */\n      0x00\n        /* \"#utility.yul\":8136:8142   */\n      dup3\n        /* \"#utility.yul\":8132:8146   */\n      add\n        /* \"#utility.yul\":8125:8183   */\n      mstore\n        /* \"#utility.yul\":8217:8225   */\n      0x616374696f6e0000000000000000000000000000000000000000000000000000\n        /* \"#utility.yul\":8212:8214   */\n      0x20\n        /* \"#utility.yul\":8204:8210   */\n      dup3\n        /* \"#utility.yul\":8200:8215   */\n      add\n        /* \"#utility.yul\":8193:8226   */\n      mstore\n        /* \"#utility.yul\":8008:8233   */\n      pop\n      jump\t// out\n        /* \"#utility.yul\":8239:8605   */\n    tag_120:\n        /* \"#utility.yul\":8381:8384   */\n      0x00\n        /* \"#utility.yul\":8402:8469   */\n      tag_209\n        /* \"#utility.yul\":8466:8468   */\n      0x26\n        /* \"#utility.yul\":8461:8464   */\n      dup4\n        /* \"#utility.yul\":8402:8469   */\n      tag_109\n      jump\t// in\n    tag_209:\n        /* \"#utility.yul\":8395:8469   */\n      swap2\n      pop\n        /* \"#utility.yul\":8478:8571   */\n      tag_210\n        /* \"#utility.yul\":8567:8570   */\n      dup3\n        /* \"#utility.yul\":8478:8571   */\n      tag_119\n      jump\t// in\n    tag_210:\n        /* \"#utility.yul\":8596:8598   */\n      0x40\n        /* \"#utility.yul\":8591:8594   */\n      dup3\n        /* \"#utility.yul\":8587:8599   */\n      add\n        /* \"#utility.yul\":8580:8599   */\n      swap1\n      pop\n        /* \"#utility.yul\":8239:8605   */\n      swap2\n      swap1\n      pop\n      jump\t// out\n        /* \"#utility.yul\":8611:9030   */\n    tag_67:\n        /* \"#utility.yul\":8777:8781   */\n      0x00\n        /* \"#utility.yul\":8815:8817   */\n      0x20\n        /* \"#utility.yul\":8804:8813   */\n      dup3\n        /* \"#utility.yul\":8800:8818   */\n      add\n        /* \"#utility.yul\":8792:8818   */\n      swap1\n      pop\n        /* \"#utility.yul\":8864:8873   */\n      dup2\n        /* \"#utility.yul\":8858:8862   */\n      dup2\n        /* \"#utility.yul\":8854:8874   */\n      sub\n        /* \"#utility.yul\":8850:8851   */\n      0x00\n        /* \"#utility.yul\":8839:8848   */\n      dup4\n        /* \"#utility.yul\":8835:8852   */\n      add\n        /* \"#utility.yul\":8828:8875   */\n      mstore\n        /* \"#utility.yul\":8892:9023   */\n      tag_212\n        /* \"#utility.yul\":9018:9022   */\n      dup2\n        /* \"#utility.yul\":8892:9023   */\n      tag_120\n      jump\t// in\n    tag_212:\n        /* \"#utility.yul\":8884:9023   */\n      swap1\n      pop\n        /* \"#utility.yul\":8611:9030   */\n      swap2\n      swap1\n      pop\n      jump\t// out\n        /* \"#utility.yul\":9036:9216   */\n    tag_87:\n        /* \"#utility.yul\":9084:9161   */\n      0x4e487b7100000000000000000000000000000000000000000000000000000000\n        /* \"#utility.yul\":9081:9082   */\n      0x00\n        /* \"#utility.yul\":9074:9162   */\n      mstore\n        /* \"#utility.yul\":9181:9185   */\n      0x12\n        /* \"#utility.yul\":9178:9179   */\n      0x04\n        /* \"#utility.yul\":9171:9186   */\n      mstore\n        /* \"#utility.yul\":9205:9209   */\n      0x24\n        /* \"#utility.yul\":9202:9203   */\n      0x00\n        /* \"#utility.yul\":9195:9210   */\n      revert\n        /* \"#utility.yul\":9222:9407   */\n    tag_73:\n        /* \"#utility.yul\":9262:9263   */\n      0x00\n        /* \"#utility.yul\":9279:9299   */\n      tag_215\n        /* \"#utility.yul\":9297:9298   */\n      dup3\n        /* \"#utility.yul\":9279:9299   */\n      tag_103\n      jump\t// in\n    tag_215:\n        /* \"#utility.yul\":9274:9299   */\n      swap2\n      pop\n        /* \"#utility.yul\":9313:9333   */\n      tag_216\n        /* \"#utility.yul\":9331:9332   */\n      dup4\n        /* \"#utility.yul\":9313:9333   */\n      tag_103\n      jump\t// in\n    tag_216:\n        /* \"#utility.yul\":9308:9333   */\n      swap3\n      pop\n        /* \"#utility.yul\":9352:9353   */\n      dup3\n        /* \"#utility.yul\":9342:9377   */\n      tag_217\n      jumpi\n        /* \"#utility.yul\":9357:9375   */\n      tag_218\n      tag_87\n      jump\t// in\n    tag_218:\n        /* \"#utility.yul\":9342:9377   */\n    tag_217:\n        /* \"#utility.yul\":9399:9400   */\n      dup3\n        /* \"#utility.yul\":9396:9397   */\n      dup3\n        /* \"#utility.yul\":9392:9401   */\n      div\n        /* \"#utility.yul\":9387:9401   */\n      swap1\n      pop\n        /* \"#utility.yul\":9222:9407   */\n      swap3\n      swap2\n      pop\n      pop\n      jump\t// out\n        /* \"#utility.yul\":9413:9641   */\n    tag_121:\n        /* \"#utility.yul\":9553:9587   */\n      0x4e6f7420656e6f75676820746f6b656e4120746f2066756c66696c6c20746865\n        /* \"#utility.yul\":9549:9550   */\n      0x00\n        /* \"#utility.yul\":9541:9547   */\n      dup3\n        /* \"#utility.yul\":9537:9551   */\n      add\n        /* \"#utility.yul\":9530:9588   */\n      mstore\n        /* \"#utility.yul\":9622:9633   */\n      0x2065786368616e67650000000000000000000000000000000000000000000000\n        /* \"#utility.yul\":9617:9619   */\n      0x20\n        /* \"#utility.yul\":9609:9615   */\n      dup3\n        /* \"#utility.yul\":9605:9620   */\n      add\n        /* \"#utility.yul\":9598:9634   */\n      mstore\n        /* \"#utility.yul\":9413:9641   */\n      pop\n      jump\t// out\n        /* \"#utility.yul\":9647:10013   */\n    tag_122:\n        /* \"#utility.yul\":9789:9792   */\n      0x00\n        /* \"#utility.yul\":9810:9877   */\n      tag_221\n        /* \"#utility.yul\":9874:9876   */\n      0x29\n        /* \"#utility.yul\":9869:9872   */\n      dup4\n        /* \"#utility.yul\":9810:9877   */\n      tag_109\n      jump\t// in\n    tag_221:\n        /* \"#utility.yul\":9803:9877   */\n      swap2\n      pop\n        /* \"#utility.yul\":9886:9979   */\n      tag_222\n        /* \"#utility.yul\":9975:9978   */\n      dup3\n        /* \"#utility.yul\":9886:9979   */\n      tag_121\n      jump\t// in\n    tag_222:\n        /* \"#utility.yul\":10004:10006   */\n      0x40\n        /* \"#utility.yul\":9999:10002   */\n      dup3\n        /* \"#utility.yul\":9995:10007   */\n      add\n        /* \"#utility.yul\":9988:10007   */\n      swap1\n      pop\n        /* \"#utility.yul\":9647:10013   */\n      swap2\n      swap1\n      pop\n      jump\t// out\n        /* \"#utility.yul\":10019:10438   */\n    tag_80:\n        /* \"#utility.yul\":10185:10189   */\n      0x00\n        /* \"#utility.yul\":10223:10225   */\n      0x20\n        /* \"#utility.yul\":10212:10221   */\n      dup3\n        /* \"#utility.yul\":10208:10226   */\n      add\n        /* \"#utility.yul\":10200:10226   */\n      swap1\n      pop\n        /* \"#utility.yul\":10272:10281   */\n      dup2\n        /* \"#utility.yul\":10266:10270   */\n      dup2\n        /* \"#utility.yul\":10262:10282   */\n      sub\n        /* \"#utility.yul\":10258:10259   */\n      0x00\n        /* \"#utility.yul\":10247:10256   */\n      dup4\n        /* \"#utility.yul\":10243:10260   */\n      add\n        /* \"#utility.yul\":10236:10283   */\n      mstore\n        /* \"#utility.yul\":10300:10431   */\n      tag_224\n        /* \"#utility.yul\":10426:10430   */\n      dup2\n        /* \"#utility.yul\":10300:10431   */\n      tag_122\n      jump\t// in\n    tag_224:\n        /* \"#utility.yul\":10292:10431   */\n      swap1\n      pop\n        /* \"#utility.yul\":10019:10438   */\n      swap2\n      swap1\n      pop\n      jump\t// out\n\n    auxdata: 0xa2646970667358221220b2b540a775379430149719038af8fab18e8342b529e352f6eb3cf9cd2b9f476864736f6c634300081a0033\n}\n",
				"bytecode": {
					"linkReferences": {},
					"object": "608060405234801561000f575f80fd5b50604051610f7f380380610f7f83398181016040528101906100319190610190565b335f806101000a81548173ffffffffffffffffffffffffffffffffffffffff021916908373ffffffffffffffffffffffffffffffffffffffff1602179055508260015f6101000a81548173ffffffffffffffffffffffffffffffffffffffff021916908373ffffffffffffffffffffffffffffffffffffffff1602179055508160025f6101000a81548173ffffffffffffffffffffffffffffffffffffffff021916908373ffffffffffffffffffffffffffffffffffffffff160217905550806003819055505050506101e0565b5f80fd5b5f73ffffffffffffffffffffffffffffffffffffffff82169050919050565b5f61012c82610103565b9050919050565b61013c81610122565b8114610146575f80fd5b50565b5f8151905061015781610133565b92915050565b5f819050919050565b61016f8161015d565b8114610179575f80fd5b50565b5f8151905061018a81610166565b92915050565b5f805f606084860312156101a7576101a66100ff565b5b5f6101b486828701610149565b93505060206101c586828701610149565b92505060406101d68682870161017c565b9150509250925092565b610d92806101ed5f395ff3fe608060405234801561000f575f80fd5b506004361061007b575f3560e01c80635f64b55b116100595780635f64b55b146100d75780638da5cb5b146100f5578063db068e0e14610113578063e4b800481461012f5761007b565b80630fc63d101461007f5780633494b0991461009d5780633ba0b9a9146100b9575b5f80fd5b61008761014b565b6040516100949190610871565b60405180910390f35b6100b760048036038101906100b291906108c1565b610170565b005b6100c161043a565b6040516100ce91906108fb565b60405180910390f35b6100df610440565b6040516100ec9190610871565b60405180910390f35b6100fd610465565b60405161010a9190610934565b60405180910390f35b61012d600480360381019061012891906108c1565b610488565b005b610149600480360381019061014491906108c1565b61051f565b005b60015f9054906101000a900473ffffffffffffffffffffffffffffffffffffffff1681565b5f81116101b2576040517f08c379a00000000000000000000000000000000000000000000000000000000081526004016101a9906109a7565b60405180910390fd5b600354816101c091906109f2565b60025f9054906101000a900473ffffffffffffffffffffffffffffffffffffffff1673ffffffffffffffffffffffffffffffffffffffff166370a08231306040518263ffffffff1660e01b815260040161021a9190610934565b602060405180830381865afa158015610235573d5f803e3d5ffd5b505050506040513d601f19601f820116820180604052508101906102599190610a47565b101561029a576040517f08c379a000000000000000000000000000000000000000000000000000000000815260040161029190610ae2565b60405180910390fd5b60015f9054906101000a900473ffffffffffffffffffffffffffffffffffffffff1673ffffffffffffffffffffffffffffffffffffffff166323b872dd3330846040518463ffffffff1660e01b81526004016102f893929190610b00565b6020604051808303815f875af1158015610314573d5f803e3d5ffd5b505050506040513d601f19601f820116820180604052508101906103389190610b6a565b5060025f9054906101000a900473ffffffffffffffffffffffffffffffffffffffff1673ffffffffffffffffffffffffffffffffffffffff1663a9059cbb3360035484026040518363ffffffff1660e01b8152600401610399929190610b95565b6020604051808303815f875af11580156103b5573d5f803e3d5ffd5b505050506040513d601f19601f820116820180604052508101906103d99190610b6a565b503373ffffffffffffffffffffffffffffffffffffffff167fe9aa0c9ef4ff638cbf0658e9ca79c852601c5cfa9a11ef499cca10df936d4b14826003548461042191906109f2565b60405161042f929190610bbc565b60405180910390a250565b60035481565b60025f9054906101000a900473ffffffffffffffffffffffffffffffffffffffff1681565b5f8054906101000a900473ffffffffffffffffffffffffffffffffffffffff1681565b5f8054906101000a900473ffffffffffffffffffffffffffffffffffffffff1673ffffffffffffffffffffffffffffffffffffffff163373ffffffffffffffffffffffffffffffffffffffff1614610515576040517f08c379a000000000000000000000000000000000000000000000000000000000815260040161050c90610c53565b60405180910390fd5b8060038190555050565b5f8111610561576040517f08c379a0000000000000000000000000000000000000000000000000000000008152600401610558906109a7565b60405180910390fd5b6003548161056f9190610c9e565b60015f9054906101000a900473ffffffffffffffffffffffffffffffffffffffff1673ffffffffffffffffffffffffffffffffffffffff166370a08231306040518263ffffffff1660e01b81526004016105c99190610934565b602060405180830381865afa1580156105e4573d5f803e3d5ffd5b505050506040513d601f19601f820116820180604052508101906106089190610a47565b1015610649576040517f08c379a000000000000000000000000000000000000000000000000000000000815260040161064090610d3e565b60405180910390fd5b60025f9054906101000a900473ffffffffffffffffffffffffffffffffffffffff1673ffffffffffffffffffffffffffffffffffffffff166323b872dd3330846040518463ffffffff1660e01b81526004016106a793929190610b00565b6020604051808303815f875af11580156106c3573d5f803e3d5ffd5b505050506040513d601f19601f820116820180604052508101906106e79190610b6a565b5060015f9054906101000a900473ffffffffffffffffffffffffffffffffffffffff1673ffffffffffffffffffffffffffffffffffffffff1663a9059cbb33600354848161073857610737610c71565b5b046040518363ffffffff1660e01b8152600401610756929190610b95565b6020604051808303815f875af1158015610772573d5f803e3d5ffd5b505050506040513d601f19601f820116820180604052508101906107969190610b6a565b503373ffffffffffffffffffffffffffffffffffffffff167f41ecb9b7e2ee42416fbb3877e43514588718a2320d0ecf2fa921494b768a2c7d82600354846107de9190610c9e565b6040516107ec929190610bbc565b60405180910390a250565b5f73ffffffffffffffffffffffffffffffffffffffff82169050919050565b5f819050919050565b5f61083961083461082f846107f7565b610816565b6107f7565b9050919050565b5f61084a8261081f565b9050919050565b5f61085b82610840565b9050919050565b61086b81610851565b82525050565b5f6020820190506108845f830184610862565b92915050565b5f80fd5b5f819050919050565b6108a08161088e565b81146108aa575f80fd5b50565b5f813590506108bb81610897565b92915050565b5f602082840312156108d6576108d561088a565b5b5f6108e3848285016108ad565b91505092915050565b6108f58161088e565b82525050565b5f60208201905061090e5f8301846108ec565b92915050565b5f61091e826107f7565b9050919050565b61092e81610914565b82525050565b5f6020820190506109475f830184610925565b92915050565b5f82825260208201905092915050565b7f416d6f756e74206d7573742062652067726561746572207468616e20300000005f82015250565b5f610991601d8361094d565b915061099c8261095d565b602082019050919050565b5f6020820190508181035f8301526109be81610985565b9050919050565b7f4e487b71000000000000000000000000000000000000000000000000000000005f52601160045260245ffd5b5f6109fc8261088e565b9150610a078361088e565b9250828202610a158161088e565b91508282048414831517610a2c57610a2b6109c5565b5b5092915050565b5f81519050610a4181610897565b92915050565b5f60208284031215610a5c57610a5b61088a565b5b5f610a6984828501610a33565b91505092915050565b7f4e6f7420656e6f75676820746f6b656e4220746f2066756c66696c6c207468655f8201527f2065786368616e67650000000000000000000000000000000000000000000000602082015250565b5f610acc60298361094d565b9150610ad782610a72565b604082019050919050565b5f6020820190508181035f830152610af981610ac0565b9050919050565b5f606082019050610b135f830186610925565b610b206020830185610925565b610b2d60408301846108ec565b949350505050565b5f8115159050919050565b610b4981610b35565b8114610b53575f80fd5b50565b5f81519050610b6481610b40565b92915050565b5f60208284031215610b7f57610b7e61088a565b5b5f610b8c84828501610b56565b91505092915050565b5f604082019050610ba85f830185610925565b610bb560208301846108ec565b9392505050565b5f604082019050610bcf5f8301856108ec565b610bdc60208301846108ec565b9392505050565b7f4f6e6c7920746865206f776e65722063616e20706572666f726d2074686973205f8201527f616374696f6e0000000000000000000000000000000000000000000000000000602082015250565b5f610c3d60268361094d565b9150610c4882610be3565b604082019050919050565b5f6020820190508181035f830152610c6a81610c31565b9050919050565b7f4e487b71000000000000000000000000000000000000000000000000000000005f52601260045260245ffd5b5f610ca88261088e565b9150610cb38361088e565b925082610cc357610cc2610c71565b5b828204905092915050565b7f4e6f7420656e6f75676820746f6b656e4120746f2066756c66696c6c207468655f8201527f2065786368616e67650000000000000000000000000000000000000000000000602082015250565b5f610d2860298361094d565b9150610d3382610cce565b604082019050919050565b5f6020820190508181035f830152610d5581610d1c565b905091905056fea2646970667358221220b2b540a775379430149719038af8fab18e8342b529e352f6eb3cf9cd2b9f476864736f6c634300081a0033",
					"opcodes": "PUSH1 0x80 PUSH1 0x40 MSTORE CALLVALUE DUP1 ISZERO PUSH2 0xF JUMPI PUSH0 DUP1 REVERT JUMPDEST POP PUSH1 0x40 MLOAD PUSH2 0xF7F CODESIZE SUB DUP1 PUSH2 0xF7F DUP4 CODECOPY DUP2 DUP2 ADD PUSH1 0x40 MSTORE DUP2 ADD SWAP1 PUSH2 0x31 SWAP2 SWAP1 PUSH2 0x190 JUMP JUMPDEST CALLER PUSH0 DUP1 PUSH2 0x100 EXP DUP2 SLOAD DUP2 PUSH20 0xFFFFFFFFFFFFFFFFFFFFFFFFFFFFFFFFFFFFFFFF MUL NOT AND SWAP1 DUP4 PUSH20 0xFFFFFFFFFFFFFFFFFFFFFFFFFFFFFFFFFFFFFFFF AND MUL OR SWAP1 SSTORE POP DUP3 PUSH1 0x1 PUSH0 PUSH2 0x100 EXP DUP2 SLOAD DUP2 PUSH20 0xFFFFFFFFFFFFFFFFFFFFFFFFFFFFFFFFFFFFFFFF MUL NOT AND SWAP1 DUP4 PUSH20 0xFFFFFFFFFFFFFFFFFFFFFFFFFFFFFFFFFFFFFFFF AND MUL OR SWAP1 SSTORE POP DUP2 PUSH1 0x2 PUSH0 PUSH2 0x100 EXP DUP2 SLOAD DUP2 PUSH20 0xFFFFFFFFFFFFFFFFFFFFFFFFFFFFFFFFFFFFFFFF MUL NOT AND SWAP1 DUP4 PUSH20 0xFFFFFFFFFFFFFFFFFFFFFFFFFFFFFFFFFFFFFFFF AND MUL OR SWAP1 SSTORE POP DUP1 PUSH1 0x3 DUP2 SWAP1 SSTORE POP POP POP POP PUSH2 0x1E0 JUMP JUMPDEST PUSH0 DUP1 REVERT JUMPDEST PUSH0 PUSH20 0xFFFFFFFFFFFFFFFFFFFFFFFFFFFFFFFFFFFFFFFF DUP3 AND SWAP1 POP SWAP2 SWAP1 POP JUMP JUMPDEST PUSH0 PUSH2 0x12C DUP3 PUSH2 0x103 JUMP JUMPDEST SWAP1 POP SWAP2 SWAP1 POP JUMP JUMPDEST PUSH2 0x13C DUP2 PUSH2 0x122 JUMP JUMPDEST DUP2 EQ PUSH2 0x146 JUMPI PUSH0 DUP1 REVERT JUMPDEST POP JUMP JUMPDEST PUSH0 DUP2 MLOAD SWAP1 POP PUSH2 0x157 DUP2 PUSH2 0x133 JUMP JUMPDEST SWAP3 SWAP2 POP POP JUMP JUMPDEST PUSH0 DUP2 SWAP1 POP SWAP2 SWAP1 POP JUMP JUMPDEST PUSH2 0x16F DUP2 PUSH2 0x15D JUMP JUMPDEST DUP2 EQ PUSH2 0x179 JUMPI PUSH0 DUP1 REVERT JUMPDEST POP JUMP JUMPDEST PUSH0 DUP2 MLOAD SWAP1 POP PUSH2 0x18A DUP2 PUSH2 0x166 JUMP JUMPDEST SWAP3 SWAP2 POP POP JUMP JUMPDEST PUSH0 DUP1 PUSH0 PUSH1 0x60 DUP5 DUP7 SUB SLT ISZERO PUSH2 0x1A7 JUMPI PUSH2 0x1A6 PUSH2 0xFF JUMP JUMPDEST JUMPDEST PUSH0 PUSH2 0x1B4 DUP7 DUP3 DUP8 ADD PUSH2 0x149 JUMP JUMPDEST SWAP4 POP POP PUSH1 0x20 PUSH2 0x1C5 DUP7 DUP3 DUP8 ADD PUSH2 0x149 JUMP JUMPDEST SWAP3 POP POP PUSH1 0x40 PUSH2 0x1D6 DUP7 DUP3 DUP8 ADD PUSH2 0x17C JUMP JUMPDEST SWAP2 POP POP SWAP3 POP SWAP3 POP SWAP3 JUMP JUMPDEST PUSH2 0xD92 DUP1 PUSH2 0x1ED PUSH0 CODECOPY PUSH0 RETURN INVALID PUSH1 0x80 PUSH1 0x40 MSTORE CALLVALUE DUP1 ISZERO PUSH2 0xF JUMPI PUSH0 DUP1 REVERT JUMPDEST POP PUSH1 0x4 CALLDATASIZE LT PUSH2 0x7B JUMPI PUSH0 CALLDATALOAD PUSH1 0xE0 SHR DUP1 PUSH4 0x5F64B55B GT PUSH2 0x59 JUMPI DUP1 PUSH4 0x5F64B55B EQ PUSH2 0xD7 JUMPI DUP1 PUSH4 0x8DA5CB5B EQ PUSH2 0xF5 JUMPI DUP1 PUSH4 0xDB068E0E EQ PUSH2 0x113 JUMPI DUP1 PUSH4 0xE4B80048 EQ PUSH2 0x12F JUMPI PUSH2 0x7B JUMP JUMPDEST DUP1 PUSH4 0xFC63D10 EQ PUSH2 0x7F JUMPI DUP1 PUSH4 0x3494B099 EQ PUSH2 0x9D JUMPI DUP1 PUSH4 0x3BA0B9A9 EQ PUSH2 0xB9 JUMPI JUMPDEST PUSH0 DUP1 REVERT JUMPDEST PUSH2 0x87 PUSH2 0x14B JUMP JUMPDEST PUSH1 0x40 MLOAD PUSH2 0x94 SWAP2 SWAP1 PUSH2 0x871 JUMP JUMPDEST PUSH1 0x40 MLOAD DUP1 SWAP2 SUB SWAP1 RETURN JUMPDEST PUSH2 0xB7 PUSH1 0x4 DUP1 CALLDATASIZE SUB DUP2 ADD SWAP1 PUSH2 0xB2 SWAP2 SWAP1 PUSH2 0x8C1 JUMP JUMPDEST PUSH2 0x170 JUMP JUMPDEST STOP JUMPDEST PUSH2 0xC1 PUSH2 0x43A JUMP JUMPDEST PUSH1 0x40 MLOAD PUSH2 0xCE SWAP2 SWAP1 PUSH2 0x8FB JUMP JUMPDEST PUSH1 0x40 MLOAD DUP1 SWAP2 SUB SWAP1 RETURN JUMPDEST PUSH2 0xDF PUSH2 0x440 JUMP JUMPDEST PUSH1 0x40 MLOAD PUSH2 0xEC SWAP2 SWAP1 PUSH2 0x871 JUMP JUMPDEST PUSH1 0x40 MLOAD DUP1 SWAP2 SUB SWAP1 RETURN JUMPDEST PUSH2 0xFD PUSH2 0x465 JUMP JUMPDEST PUSH1 0x40 MLOAD PUSH2 0x10A SWAP2 SWAP1 PUSH2 0x934 JUMP JUMPDEST PUSH1 0x40 MLOAD DUP1 SWAP2 SUB SWAP1 RETURN JUMPDEST PUSH2 0x12D PUSH1 0x4 DUP1 CALLDATASIZE SUB DUP2 ADD SWAP1 PUSH2 0x128 SWAP2 SWAP1 PUSH2 0x8C1 JUMP JUMPDEST PUSH2 0x488 JUMP JUMPDEST STOP JUMPDEST PUSH2 0x149 PUSH1 0x4 DUP1 CALLDATASIZE SUB DUP2 ADD SWAP1 PUSH2 0x144 SWAP2 SWAP1 PUSH2 0x8C1 JUMP JUMPDEST PUSH2 0x51F JUMP JUMPDEST STOP JUMPDEST PUSH1 0x1 PUSH0 SWAP1 SLOAD SWAP1 PUSH2 0x100 EXP SWAP1 DIV PUSH20 0xFFFFFFFFFFFFFFFFFFFFFFFFFFFFFFFFFFFFFFFF AND DUP2 JUMP JUMPDEST PUSH0 DUP2 GT PUSH2 0x1B2 JUMPI PUSH1 0x40 MLOAD PUSH32 0x8C379A000000000000000000000000000000000000000000000000000000000 DUP2 MSTORE PUSH1 0x4 ADD PUSH2 0x1A9 SWAP1 PUSH2 0x9A7 JUMP JUMPDEST PUSH1 0x40 MLOAD DUP1 SWAP2 SUB SWAP1 REVERT JUMPDEST PUSH1 0x3 SLOAD DUP2 PUSH2 0x1C0 SWAP2 SWAP1 PUSH2 0x9F2 JUMP JUMPDEST PUSH1 0x2 PUSH0 SWAP1 SLOAD SWAP1 PUSH2 0x100 EXP SWAP1 DIV PUSH20 0xFFFFFFFFFFFFFFFFFFFFFFFFFFFFFFFFFFFFFFFF AND PUSH20 0xFFFFFFFFFFFFFFFFFFFFFFFFFFFFFFFFFFFFFFFF AND PUSH4 0x70A08231 ADDRESS PUSH1 0x40 MLOAD DUP3 PUSH4 0xFFFFFFFF AND PUSH1 0xE0 SHL DUP2 MSTORE PUSH1 0x4 ADD PUSH2 0x21A SWAP2 SWAP1 PUSH2 0x934 JUMP JUMPDEST PUSH1 0x20 PUSH1 0x40 MLOAD DUP1 DUP4 SUB DUP2 DUP7 GAS STATICCALL ISZERO DUP1 ISZERO PUSH2 0x235 JUMPI RETURNDATASIZE PUSH0 DUP1 RETURNDATACOPY RETURNDATASIZE PUSH0 REVERT JUMPDEST POP POP POP POP PUSH1 0x40 MLOAD RETURNDATASIZE PUSH1 0x1F NOT PUSH1 0x1F DUP3 ADD AND DUP3 ADD DUP1 PUSH1 0x40 MSTORE POP DUP2 ADD SWAP1 PUSH2 0x259 SWAP2 SWAP1 PUSH2 0xA47 JUMP JUMPDEST LT ISZERO PUSH2 0x29A JUMPI PUSH1 0x40 MLOAD PUSH32 0x8C379A000000000000000000000000000000000000000000000000000000000 DUP2 MSTORE PUSH1 0x4 ADD PUSH2 0x291 SWAP1 PUSH2 0xAE2 JUMP JUMPDEST PUSH1 0x40 MLOAD DUP1 SWAP2 SUB SWAP1 REVERT JUMPDEST PUSH1 0x1 PUSH0 SWAP1 SLOAD SWAP1 PUSH2 0x100 EXP SWAP1 DIV PUSH20 0xFFFFFFFFFFFFFFFFFFFFFFFFFFFFFFFFFFFFFFFF AND PUSH20 0xFFFFFFFFFFFFFFFFFFFFFFFFFFFFFFFFFFFFFFFF AND PUSH4 0x23B872DD CALLER ADDRESS DUP5 PUSH1 0x40 MLOAD DUP5 PUSH4 0xFFFFFFFF AND PUSH1 0xE0 SHL DUP2 MSTORE PUSH1 0x4 ADD PUSH2 0x2F8 SWAP4 SWAP3 SWAP2 SWAP1 PUSH2 0xB00 JUMP JUMPDEST PUSH1 0x20 PUSH1 0x40 MLOAD DUP1 DUP4 SUB DUP2 PUSH0 DUP8 GAS CALL ISZERO DUP1 ISZERO PUSH2 0x314 JUMPI RETURNDATASIZE PUSH0 DUP1 RETURNDATACOPY RETURNDATASIZE PUSH0 REVERT JUMPDEST POP POP POP POP PUSH1 0x40 MLOAD RETURNDATASIZE PUSH1 0x1F NOT PUSH1 0x1F DUP3 ADD AND DUP3 ADD DUP1 PUSH1 0x40 MSTORE POP DUP2 ADD SWAP1 PUSH2 0x338 SWAP2 SWAP1 PUSH2 0xB6A JUMP JUMPDEST POP PUSH1 0x2 PUSH0 SWAP1 SLOAD SWAP1 PUSH2 0x100 EXP SWAP1 DIV PUSH20 0xFFFFFFFFFFFFFFFFFFFFFFFFFFFFFFFFFFFFFFFF AND PUSH20 0xFFFFFFFFFFFFFFFFFFFFFFFFFFFFFFFFFFFFFFFF AND PUSH4 0xA9059CBB CALLER PUSH1 0x3 SLOAD DUP5 MUL PUSH1 0x40 MLOAD DUP4 PUSH4 0xFFFFFFFF AND PUSH1 0xE0 SHL DUP2 MSTORE PUSH1 0x4 ADD PUSH2 0x399 SWAP3 SWAP2 SWAP1 PUSH2 0xB95 JUMP JUMPDEST PUSH1 0x20 PUSH1 0x40 MLOAD DUP1 DUP4 SUB DUP2 PUSH0 DUP8 GAS CALL ISZERO DUP1 ISZERO PUSH2 0x3B5 JUMPI RETURNDATASIZE PUSH0 DUP1 RETURNDATACOPY RETURNDATASIZE PUSH0 REVERT JUMPDEST POP POP POP POP PUSH1 0x40 MLOAD RETURNDATASIZE PUSH1 0x1F NOT PUSH1 0x1F DUP3 ADD AND DUP3 ADD DUP1 PUSH1 0x40 MSTORE POP DUP2 ADD SWAP1 PUSH2 0x3D9 SWAP2 SWAP1 PUSH2 0xB6A JUMP JUMPDEST POP CALLER PUSH20 0xFFFFFFFFFFFFFFFFFFFFFFFFFFFFFFFFFFFFFFFF AND PUSH32 0xE9AA0C9EF4FF638CBF0658E9CA79C852601C5CFA9A11EF499CCA10DF936D4B14 DUP3 PUSH1 0x3 SLOAD DUP5 PUSH2 0x421 SWAP2 SWAP1 PUSH2 0x9F2 JUMP JUMPDEST PUSH1 0x40 MLOAD PUSH2 0x42F SWAP3 SWAP2 SWAP1 PUSH2 0xBBC JUMP JUMPDEST PUSH1 0x40 MLOAD DUP1 SWAP2 SUB SWAP1 LOG2 POP JUMP JUMPDEST PUSH1 0x3 SLOAD DUP2 JUMP JUMPDEST PUSH1 0x2 PUSH0 SWAP1 SLOAD SWAP1 PUSH2 0x100 EXP SWAP1 DIV PUSH20 0xFFFFFFFFFFFFFFFFFFFFFFFFFFFFFFFFFFFFFFFF AND DUP2 JUMP JUMPDEST PUSH0 DUP1 SLOAD SWAP1 PUSH2 0x100 EXP SWAP1 DIV PUSH20 0xFFFFFFFFFFFFFFFFFFFFFFFFFFFFFFFFFFFFFFFF AND DUP2 JUMP JUMPDEST PUSH0 DUP1 SLOAD SWAP1 PUSH2 0x100 EXP SWAP1 DIV PUSH20 0xFFFFFFFFFFFFFFFFFFFFFFFFFFFFFFFFFFFFFFFF AND PUSH20 0xFFFFFFFFFFFFFFFFFFFFFFFFFFFFFFFFFFFFFFFF AND CALLER PUSH20 0xFFFFFFFFFFFFFFFFFFFFFFFFFFFFFFFFFFFFFFFF AND EQ PUSH2 0x515 JUMPI PUSH1 0x40 MLOAD PUSH32 0x8C379A000000000000000000000000000000000000000000000000000000000 DUP2 MSTORE PUSH1 0x4 ADD PUSH2 0x50C SWAP1 PUSH2 0xC53 JUMP JUMPDEST PUSH1 0x40 MLOAD DUP1 SWAP2 SUB SWAP1 REVERT JUMPDEST DUP1 PUSH1 0x3 DUP2 SWAP1 SSTORE POP POP JUMP JUMPDEST PUSH0 DUP2 GT PUSH2 0x561 JUMPI PUSH1 0x40 MLOAD PUSH32 0x8C379A000000000000000000000000000000000000000000000000000000000 DUP2 MSTORE PUSH1 0x4 ADD PUSH2 0x558 SWAP1 PUSH2 0x9A7 JUMP JUMPDEST PUSH1 0x40 MLOAD DUP1 SWAP2 SUB SWAP1 REVERT JUMPDEST PUSH1 0x3 SLOAD DUP2 PUSH2 0x56F SWAP2 SWAP1 PUSH2 0xC9E JUMP JUMPDEST PUSH1 0x1 PUSH0 SWAP1 SLOAD SWAP1 PUSH2 0x100 EXP SWAP1 DIV PUSH20 0xFFFFFFFFFFFFFFFFFFFFFFFFFFFFFFFFFFFFFFFF AND PUSH20 0xFFFFFFFFFFFFFFFFFFFFFFFFFFFFFFFFFFFFFFFF AND PUSH4 0x70A08231 ADDRESS PUSH1 0x40 MLOAD DUP3 PUSH4 0xFFFFFFFF AND PUSH1 0xE0 SHL DUP2 MSTORE PUSH1 0x4 ADD PUSH2 0x5C9 SWAP2 SWAP1 PUSH2 0x934 JUMP JUMPDEST PUSH1 0x20 PUSH1 0x40 MLOAD DUP1 DUP4 SUB DUP2 DUP7 GAS STATICCALL ISZERO DUP1 ISZERO PUSH2 0x5E4 JUMPI RETURNDATASIZE PUSH0 DUP1 RETURNDATACOPY RETURNDATASIZE PUSH0 REVERT JUMPDEST POP POP POP POP PUSH1 0x40 MLOAD RETURNDATASIZE PUSH1 0x1F NOT PUSH1 0x1F DUP3 ADD AND DUP3 ADD DUP1 PUSH1 0x40 MSTORE POP DUP2 ADD SWAP1 PUSH2 0x608 SWAP2 SWAP1 PUSH2 0xA47 JUMP JUMPDEST LT ISZERO PUSH2 0x649 JUMPI PUSH1 0x40 MLOAD PUSH32 0x8C379A000000000000000000000000000000000000000000000000000000000 DUP2 MSTORE PUSH1 0x4 ADD PUSH2 0x640 SWAP1 PUSH2 0xD3E JUMP JUMPDEST PUSH1 0x40 MLOAD DUP1 SWAP2 SUB SWAP1 REVERT JUMPDEST PUSH1 0x2 PUSH0 SWAP1 SLOAD SWAP1 PUSH2 0x100 EXP SWAP1 DIV PUSH20 0xFFFFFFFFFFFFFFFFFFFFFFFFFFFFFFFFFFFFFFFF AND PUSH20 0xFFFFFFFFFFFFFFFFFFFFFFFFFFFFFFFFFFFFFFFF AND PUSH4 0x23B872DD CALLER ADDRESS DUP5 PUSH1 0x40 MLOAD DUP5 PUSH4 0xFFFFFFFF AND PUSH1 0xE0 SHL DUP2 MSTORE PUSH1 0x4 ADD PUSH2 0x6A7 SWAP4 SWAP3 SWAP2 SWAP1 PUSH2 0xB00 JUMP JUMPDEST PUSH1 0x20 PUSH1 0x40 MLOAD DUP1 DUP4 SUB DUP2 PUSH0 DUP8 GAS CALL ISZERO DUP1 ISZERO PUSH2 0x6C3 JUMPI RETURNDATASIZE PUSH0 DUP1 RETURNDATACOPY RETURNDATASIZE PUSH0 REVERT JUMPDEST POP POP POP POP PUSH1 0x40 MLOAD RETURNDATASIZE PUSH1 0x1F NOT PUSH1 0x1F DUP3 ADD AND DUP3 ADD DUP1 PUSH1 0x40 MSTORE POP DUP2 ADD SWAP1 PUSH2 0x6E7 SWAP2 SWAP1 PUSH2 0xB6A JUMP JUMPDEST POP PUSH1 0x1 PUSH0 SWAP1 SLOAD SWAP1 PUSH2 0x100 EXP SWAP1 DIV PUSH20 0xFFFFFFFFFFFFFFFFFFFFFFFFFFFFFFFFFFFFFFFF AND PUSH20 0xFFFFFFFFFFFFFFFFFFFFFFFFFFFFFFFFFFFFFFFF AND PUSH4 0xA9059CBB CALLER PUSH1 0x3 SLOAD DUP5 DUP2 PUSH2 0x738 JUMPI PUSH2 0x737 PUSH2 0xC71 JUMP JUMPDEST JUMPDEST DIV PUSH1 0x40 MLOAD DUP4 PUSH4 0xFFFFFFFF AND PUSH1 0xE0 SHL DUP2 MSTORE PUSH1 0x4 ADD PUSH2 0x756 SWAP3 SWAP2 SWAP1 PUSH2 0xB95 JUMP JUMPDEST PUSH1 0x20 PUSH1 0x40 MLOAD DUP1 DUP4 SUB DUP2 PUSH0 DUP8 GAS CALL ISZERO DUP1 ISZERO PUSH2 0x772 JUMPI RETURNDATASIZE PUSH0 DUP1 RETURNDATACOPY RETURNDATASIZE PUSH0 REVERT JUMPDEST POP POP POP POP PUSH1 0x40 MLOAD RETURNDATASIZE PUSH1 0x1F NOT PUSH1 0x1F DUP3 ADD AND DUP3 ADD DUP1 PUSH1 0x40 MSTORE POP DUP2 ADD SWAP1 PUSH2 0x796 SWAP2 SWAP1 PUSH2 0xB6A JUMP JUMPDEST POP CALLER PUSH20 0xFFFFFFFFFFFFFFFFFFFFFFFFFFFFFFFFFFFFFFFF AND PUSH32 0x41ECB9B7E2EE42416FBB3877E43514588718A2320D0ECF2FA921494B768A2C7D DUP3 PUSH1 0x3 SLOAD DUP5 PUSH2 0x7DE SWAP2 SWAP1 PUSH2 0xC9E JUMP JUMPDEST PUSH1 0x40 MLOAD PUSH2 0x7EC SWAP3 SWAP2 SWAP1 PUSH2 0xBBC JUMP JUMPDEST PUSH1 0x40 MLOAD DUP1 SWAP2 SUB SWAP1 LOG2 POP JUMP JUMPDEST PUSH0 PUSH20 0xFFFFFFFFFFFFFFFFFFFFFFFFFFFFFFFFFFFFFFFF DUP3 AND SWAP1 POP SWAP2 SWAP1 POP JUMP JUMPDEST PUSH0 DUP2 SWAP1 POP SWAP2 SWAP1 POP JUMP JUMPDEST PUSH0 PUSH2 0x839 PUSH2 0x834 PUSH2 0x82F DUP5 PUSH2 0x7F7 JUMP JUMPDEST PUSH2 0x816 JUMP JUMPDEST PUSH2 0x7F7 JUMP JUMPDEST SWAP1 POP SWAP2 SWAP1 POP JUMP JUMPDEST PUSH0 PUSH2 0x84A DUP3 PUSH2 0x81F JUMP JUMPDEST SWAP1 POP SWAP2 SWAP1 POP JUMP JUMPDEST PUSH0 PUSH2 0x85B DUP3 PUSH2 0x840 JUMP JUMPDEST SWAP1 POP SWAP2 SWAP1 POP JUMP JUMPDEST PUSH2 0x86B DUP2 PUSH2 0x851 JUMP JUMPDEST DUP3 MSTORE POP POP JUMP JUMPDEST PUSH0 PUSH1 0x20 DUP3 ADD SWAP1 POP PUSH2 0x884 PUSH0 DUP4 ADD DUP5 PUSH2 0x862 JUMP JUMPDEST SWAP3 SWAP2 POP POP JUMP JUMPDEST PUSH0 DUP1 REVERT JUMPDEST PUSH0 DUP2 SWAP1 POP SWAP2 SWAP1 POP JUMP JUMPDEST PUSH2 0x8A0 DUP2 PUSH2 0x88E JUMP JUMPDEST DUP2 EQ PUSH2 0x8AA JUMPI PUSH0 DUP1 REVERT JUMPDEST POP JUMP JUMPDEST PUSH0 DUP2 CALLDATALOAD SWAP1 POP PUSH2 0x8BB DUP2 PUSH2 0x897 JUMP JUMPDEST SWAP3 SWAP2 POP POP JUMP JUMPDEST PUSH0 PUSH1 0x20 DUP3 DUP5 SUB SLT ISZERO PUSH2 0x8D6 JUMPI PUSH2 0x8D5 PUSH2 0x88A JUMP JUMPDEST JUMPDEST PUSH0 PUSH2 0x8E3 DUP5 DUP3 DUP6 ADD PUSH2 0x8AD JUMP JUMPDEST SWAP2 POP POP SWAP3 SWAP2 POP POP JUMP JUMPDEST PUSH2 0x8F5 DUP2 PUSH2 0x88E JUMP JUMPDEST DUP3 MSTORE POP POP JUMP JUMPDEST PUSH0 PUSH1 0x20 DUP3 ADD SWAP1 POP PUSH2 0x90E PUSH0 DUP4 ADD DUP5 PUSH2 0x8EC JUMP JUMPDEST SWAP3 SWAP2 POP POP JUMP JUMPDEST PUSH0 PUSH2 0x91E DUP3 PUSH2 0x7F7 JUMP JUMPDEST SWAP1 POP SWAP2 SWAP1 POP JUMP JUMPDEST PUSH2 0x92E DUP2 PUSH2 0x914 JUMP JUMPDEST DUP3 MSTORE POP POP JUMP JUMPDEST PUSH0 PUSH1 0x20 DUP3 ADD SWAP1 POP PUSH2 0x947 PUSH0 DUP4 ADD DUP5 PUSH2 0x925 JUMP JUMPDEST SWAP3 SWAP2 POP POP JUMP JUMPDEST PUSH0 DUP3 DUP3 MSTORE PUSH1 0x20 DUP3 ADD SWAP1 POP SWAP3 SWAP2 POP POP JUMP JUMPDEST PUSH32 0x416D6F756E74206D7573742062652067726561746572207468616E2030000000 PUSH0 DUP3 ADD MSTORE POP JUMP JUMPDEST PUSH0 PUSH2 0x991 PUSH1 0x1D DUP4 PUSH2 0x94D JUMP JUMPDEST SWAP2 POP PUSH2 0x99C DUP3 PUSH2 0x95D JUMP JUMPDEST PUSH1 0x20 DUP3 ADD SWAP1 POP SWAP2 SWAP1 POP JUMP JUMPDEST PUSH0 PUSH1 0x20 DUP3 ADD SWAP1 POP DUP2 DUP2 SUB PUSH0 DUP4 ADD MSTORE PUSH2 0x9BE DUP2 PUSH2 0x985 JUMP JUMPDEST SWAP1 POP SWAP2 SWAP1 POP JUMP JUMPDEST PUSH32 0x4E487B7100000000000000000000000000000000000000000000000000000000 PUSH0 MSTORE PUSH1 0x11 PUSH1 0x4 MSTORE PUSH1 0x24 PUSH0 REVERT JUMPDEST PUSH0 PUSH2 0x9FC DUP3 PUSH2 0x88E JUMP JUMPDEST SWAP2 POP PUSH2 0xA07 DUP4 PUSH2 0x88E JUMP JUMPDEST SWAP3 POP DUP3 DUP3 MUL PUSH2 0xA15 DUP2 PUSH2 0x88E JUMP JUMPDEST SWAP2 POP DUP3 DUP3 DIV DUP5 EQ DUP4 ISZERO OR PUSH2 0xA2C JUMPI PUSH2 0xA2B PUSH2 0x9C5 JUMP JUMPDEST JUMPDEST POP SWAP3 SWAP2 POP POP JUMP JUMPDEST PUSH0 DUP2 MLOAD SWAP1 POP PUSH2 0xA41 DUP2 PUSH2 0x897 JUMP JUMPDEST SWAP3 SWAP2 POP POP JUMP JUMPDEST PUSH0 PUSH1 0x20 DUP3 DUP5 SUB SLT ISZERO PUSH2 0xA5C JUMPI PUSH2 0xA5B PUSH2 0x88A JUMP JUMPDEST JUMPDEST PUSH0 PUSH2 0xA69 DUP5 DUP3 DUP6 ADD PUSH2 0xA33 JUMP JUMPDEST SWAP2 POP POP SWAP3 SWAP2 POP POP JUMP JUMPDEST PUSH32 0x4E6F7420656E6F75676820746F6B656E4220746F2066756C66696C6C20746865 PUSH0 DUP3 ADD MSTORE PUSH32 0x2065786368616E67650000000000000000000000000000000000000000000000 PUSH1 0x20 DUP3 ADD MSTORE POP JUMP JUMPDEST PUSH0 PUSH2 0xACC PUSH1 0x29 DUP4 PUSH2 0x94D JUMP JUMPDEST SWAP2 POP PUSH2 0xAD7 DUP3 PUSH2 0xA72 JUMP JUMPDEST PUSH1 0x40 DUP3 ADD SWAP1 POP SWAP2 SWAP1 POP JUMP JUMPDEST PUSH0 PUSH1 0x20 DUP3 ADD SWAP1 POP DUP2 DUP2 SUB PUSH0 DUP4 ADD MSTORE PUSH2 0xAF9 DUP2 PUSH2 0xAC0 JUMP JUMPDEST SWAP1 POP SWAP2 SWAP1 POP JUMP JUMPDEST PUSH0 PUSH1 0x60 DUP3 ADD SWAP1 POP PUSH2 0xB13 PUSH0 DUP4 ADD DUP7 PUSH2 0x925 JUMP JUMPDEST PUSH2 0xB20 PUSH1 0x20 DUP4 ADD DUP6 PUSH2 0x925 JUMP JUMPDEST PUSH2 0xB2D PUSH1 0x40 DUP4 ADD DUP5 PUSH2 0x8EC JUMP JUMPDEST SWAP5 SWAP4 POP POP POP POP JUMP JUMPDEST PUSH0 DUP2 ISZERO ISZERO SWAP1 POP SWAP2 SWAP1 POP JUMP JUMPDEST PUSH2 0xB49 DUP2 PUSH2 0xB35 JUMP JUMPDEST DUP2 EQ PUSH2 0xB53 JUMPI PUSH0 DUP1 REVERT JUMPDEST POP JUMP JUMPDEST PUSH0 DUP2 MLOAD SWAP1 POP PUSH2 0xB64 DUP2 PUSH2 0xB40 JUMP JUMPDEST SWAP3 SWAP2 POP POP JUMP JUMPDEST PUSH0 PUSH1 0x20 DUP3 DUP5 SUB SLT ISZERO PUSH2 0xB7F JUMPI PUSH2 0xB7E PUSH2 0x88A JUMP JUMPDEST JUMPDEST PUSH0 PUSH2 0xB8C DUP5 DUP3 DUP6 ADD PUSH2 0xB56 JUMP JUMPDEST SWAP2 POP POP SWAP3 SWAP2 POP POP JUMP JUMPDEST PUSH0 PUSH1 0x40 DUP3 ADD SWAP1 POP PUSH2 0xBA8 PUSH0 DUP4 ADD DUP6 PUSH2 0x925 JUMP JUMPDEST PUSH2 0xBB5 PUSH1 0x20 DUP4 ADD DUP5 PUSH2 0x8EC JUMP JUMPDEST SWAP4 SWAP3 POP POP POP JUMP JUMPDEST PUSH0 PUSH1 0x40 DUP3 ADD SWAP1 POP PUSH2 0xBCF PUSH0 DUP4 ADD DUP6 PUSH2 0x8EC JUMP JUMPDEST PUSH2 0xBDC PUSH1 0x20 DUP4 ADD DUP5 PUSH2 0x8EC JUMP JUMPDEST SWAP4 SWAP3 POP POP POP JUMP JUMPDEST PUSH32 0x4F6E6C7920746865206F776E65722063616E20706572666F726D207468697320 PUSH0 DUP3 ADD MSTORE PUSH32 0x616374696F6E0000000000000000000000000000000000000000000000000000 PUSH1 0x20 DUP3 ADD MSTORE POP JUMP JUMPDEST PUSH0 PUSH2 0xC3D PUSH1 0x26 DUP4 PUSH2 0x94D JUMP JUMPDEST SWAP2 POP PUSH2 0xC48 DUP3 PUSH2 0xBE3 JUMP JUMPDEST PUSH1 0x40 DUP3 ADD SWAP1 POP SWAP2 SWAP1 POP JUMP JUMPDEST PUSH0 PUSH1 0x20 DUP3 ADD SWAP1 POP DUP2 DUP2 SUB PUSH0 DUP4 ADD MSTORE PUSH2 0xC6A DUP2 PUSH2 0xC31 JUMP JUMPDEST SWAP1 POP SWAP2 SWAP1 POP JUMP JUMPDEST PUSH32 0x4E487B7100000000000000000000000000000000000000000000000000000000 PUSH0 MSTORE PUSH1 0x12 PUSH1 0x4 MSTORE PUSH1 0x24 PUSH0 REVERT JUMPDEST PUSH0 PUSH2 0xCA8 DUP3 PUSH2 0x88E JUMP JUMPDEST SWAP2 POP PUSH2 0xCB3 DUP4 PUSH2 0x88E JUMP JUMPDEST SWAP3 POP DUP3 PUSH2 0xCC3 JUMPI PUSH2 0xCC2 PUSH2 0xC71 JUMP JUMPDEST JUMPDEST DUP3 DUP3 DIV SWAP1 POP SWAP3 SWAP2 POP POP JUMP JUMPDEST PUSH32 0x4E6F7420656E6F75676820746F6B656E4120746F2066756C66696C6C20746865 PUSH0 DUP3 ADD MSTORE PUSH32 0x2065786368616E67650000000000000000000000000000000000000000000000 PUSH1 0x20 DUP3 ADD MSTORE POP JUMP JUMPDEST PUSH0 PUSH2 0xD28 PUSH1 0x29 DUP4 PUSH2 0x94D JUMP JUMPDEST SWAP2 POP PUSH2 0xD33 DUP3 PUSH2 0xCCE JUMP JUMPDEST PUSH1 0x40 DUP3 ADD SWAP1 POP SWAP2 SWAP1 POP JUMP JUMPDEST PUSH0 PUSH1 0x20 DUP3 ADD SWAP1 POP DUP2 DUP2 SUB PUSH0 DUP4 ADD MSTORE PUSH2 0xD55 DUP2 PUSH2 0xD1C JUMP JUMPDEST SWAP1 POP SWAP2 SWAP1 POP JUMP INVALID LOG2 PUSH5 0x6970667358 0x22 SLT KECCAK256 0xB2 0xB5 BLOCKHASH 0xA7 PUSH22 0x379430149719038AF8FAB18E8342B529E352F6EB3CF9 0xCD 0x2B SWAP16 SELFBALANCE PUSH9 0x64736F6C634300081A STOP CALLER "
				},
				"gasEstimates": {
					"creation": {
						"codeDepositCost": "694800",
						"executionCost": "infinite",
						"totalCost": "infinite"
					},
					"external": {
						"exchangeRate()": "2470",
						"exchangeTokenAForTokenB(uint256)": "infinite",
						"exchangeTokenBForTokenA(uint256)": "infinite",
						"owner()": "2527",
						"setExchangeRate(uint256)": "24725",
						"tokenA()": "infinite",
						"tokenB()": "infinite"
					}
				},
				"methodIdentifiers": {
					"exchangeRate()": "3ba0b9a9",
					"exchangeTokenAForTokenB(uint256)": "3494b099",
					"exchangeTokenBForTokenA(uint256)": "e4b80048",
					"owner()": "8da5cb5b",
					"setExchangeRate(uint256)": "db068e0e",
					"tokenA()": "0fc63d10",
					"tokenB()": "5f64b55b"
				}
			},
			"storageLayout": {
				"storage": [
					{
						"astId": 674,
						"contract": "contracts/FundMe.sol:SimpleDEX",
						"label": "owner",
						"offset": 0,
						"slot": "0",
						"type": "t_address"
					},
					{
						"astId": 677,
						"contract": "contracts/FundMe.sol:SimpleDEX",
						"label": "tokenA",
						"offset": 0,
						"slot": "1",
						"type": "t_contract(IERC20)623"
					},
					{
						"astId": 680,
						"contract": "contracts/FundMe.sol:SimpleDEX",
						"label": "tokenB",
						"offset": 0,
						"slot": "2",
						"type": "t_contract(IERC20)623"
					},
					{
						"astId": 682,
						"contract": "contracts/FundMe.sol:SimpleDEX",
						"label": "exchangeRate",
						"offset": 0,
						"slot": "3",
						"type": "t_uint256"
					}
				],
				"types": {
					"t_address": {
						"encoding": "inplace",
						"label": "address",
						"numberOfBytes": "20"
					},
					"t_contract(IERC20)623": {
						"encoding": "inplace",
						"label": "contract IERC20",
						"numberOfBytes": "20"
					},
					"t_uint256": {
						"encoding": "inplace",
						"label": "uint256",
						"numberOfBytes": "32"
					}
				}
			},
			"userdoc": {
				"kind": "user",
				"methods": {},
				"version": 1
			}
		}
	}
}